:020000041000EA
:10100000500500201D100010000000009D10001071
:101010000018040000010000000000801149124A7D
:10102000124B00F018F8124880471249124A134B2D
:1010300000F011F81249134A134B00F00CF8134951
:10104000134A0020521A02DD043A8850FCDC114891
:101050008047114880479B1A03DD043BC858D05095
:10106000FBDC7047705400100C0000205001002081
:10107000A1100010B45500105005002020060020DB
:1010800084560010200600202006002020060020A4
:1010900014070020FD51001041490010FEE7000038
:1010A00080B500AF03F0CEFA03F01AFBBD4680BD59
:1010B00080B500AF2A4B1A68FF231B0213401A0A9F
:1010C000284B1A60274B1B68002B37D0244B1B681A
:1010D000FF221A40244B1A60214BDB690322134084
:1010E0001A02214B1B681A431F4B1A601C4BDA690A
:1010F00080239B0013400ED11A4B1B689A021A4B97
:101100001B68D3181948191C00F0D8FD031C1A01DC
:10111000174B1A6021E000F02FF8031C9901114BC6
:101120001B689A02104B1B68D318081C191C00F08E
:10113000C5FD031C1A010E4B1A600EE0084BDA695C
:1011400080239B00134003D1094B0A4A1A6004E034
:1011500000F012F8021C064B1A60BD4680BDC04666
:1011600000030140200600202406002000001BB7D9
:10117000FC3F0020006CDC0280B500AF014B181C66
:10118000BD4680BD002D310190B585B000AFF8603F
:101190007A600B23FB180A1C1A700B23FB181B78B0
:1011A0009B08DBB2181C0B23FB181B789B08DBB2D7
:1011B0001A1CFB6804329200D3580B22BA1812781A
:1011C00003210A40D200111CFC228A40D2431A405B
:1011D000111CFB68021D9200D150FB685B6F0B2253
:1011E000BA1812785200111C03228A40D2431A40C6
:1011F000FB685A670B23FB181B78DB08DBB2181C53
:101200000B23FB181B78DB08DBB21A1CFB681032BF
:101210009200D3580B22BA18127807210A40920084
:10122000111C04228A40D2431A40111CFB68021C84
:1012300010329200D1500B23FB181B78DB08DBB275
:10124000181C0B23FB181B78DB08DBB21A1CFB688D
:1012500010329200D2587B685B781C1C0B23FB1861
:101260001B7807210B409B009C40231C1A43111C38
:10127000FB68021C10329200D150FB68204A934256
:101280000BD1FB681B6E0B22BA181278012191401A
:101290000A1CD2431A40FB681A667B681B78DBB2D3
:1012A0005BB2002B07DA7B685A680B23FB181B78AC
:1012B0009A40FB685A600B23FB181B789B08DBB233
:1012C000181C0B23FB181B789B08DBB21A1CFB684D
:1012D00004329200D2587B681B781C1C0B23FB182D
:1012E0001B7803210B40DB009C40231C1A43111C7C
:1012F000FB68021D9200D150BD4605B090BDC046AE
:101300000002044080B500AF024BC3225A62BD46C2
:1013100080BDC0460000014080B500AF054BC02233
:101320005A62C046034B5B6A04221340FAD1BD46A1
:1013300080BDC0460000014080B586B000AF786037
:10134000FFF7EAFF7B689B79302B53D0FFF714FF40
:10135000021E494B9A4209D9484A48499023CB5A20
:101360009BB240210B4399B29023D152434A434947
:101370009023CB5A9BB29BB2191C322399430B1C6E
:1013800099B27B689B799BB20B439BB299B2902335
:10139000D1523B4B02229A623A4B3A4A52693A493D
:1013A0000A405A61394B7B6100E0C0467B69013BD2
:1013B0007B617B69002BF8D1324B324A5269C021E4
:1013C00089040A435A61C0462E4B5A6980235B0444
:1013D0001340F9D12E4B3B6100E0C0463B69013B15
:1013E0003B613B69002BF8D1254B1B6A022213405D
:1013F000CFD109E0214A21499023CB5A9BB2302119
:101400000B4399B29023D1521C4A7B68DB7999B285
:101410008C23D1527B68DB79002B09D11D4BFB60FB
:1014200000E0C046FB68013BFB60FB68002BF8D185
:10143000144B144AD26918490A40796889880A43CA
:10144000DA61104A0F4B1B68144919407B68DB684E
:1014500019437B689B680B431360FFF753FF7B685E
:101460009B781A1C7B681B88101C191C00F044F820
:10147000BD4606B080BDC046002D310100100140C0
:101480003800014000030140FFFFFFFD1A02000089
:101490007D0A0000A02E6300FFFDFFFFFFFFF0FFAD
:1014A00080B582B000AF7860FFF736FF084B084A7E
:1014B00011697A680A431A61C046054B1A6880238D
:1014C000DB051340F9D1FFF71DFFBD4602B080BD1B
:1014D0000003014080B582B000AF7860054B9B6887
:1014E0007A6813405A1E9341DBB2181CBD4602B005
:1014F00080BDC0460003014080B584B000AF786075
:101500003960FFF709FF274B1A68FF231B021340BE
:101510001B0AFB60234B234AD26903218A43111C17
:101520003A68120A0A43DA611E4B1E4A12681E49C3
:1015300011403A68FF2002400A431C490A431A60DE
:10154000C046184B1A688023DB051340F9D1FA68AE
:101550007B689A4206D8FA687B68101C191C00F058
:1015600053F805E0FA687B68101C191C00F022F89B
:101570000C4B0C4A12680E4911407A6812020A4359
:101580000A490A431A60C046064B1A688023DB05E5
:101590001340F9D1FFF7B6FEFFF78AFDBD4604B050
:1015A00080BDC0460003014000FF0FC00000F03FB7
:1015B000FF000FC080B582B000AF7860396014E0E2
:1015C0007B689B087B600D4B0C4A12680C491140EC
:1015D0007A6812020A430B490A431A60C046074B55
:1015E0001A688023DB051340F9D13B689A007B68B9
:1015F0009A42E5D3BD4602B080BDC046000301401B
:10160000FF000FC00000F03F80B582B000AF7860EF
:10161000396019E07B68002B01D101237B607B6876
:101620009B007B600C4B0C4A12680C4911407A6895
:1016300012020A430A490A431A60C046064B1A6856
:101640008023DB051340F9D17B689A003B689A42FE
:10165000E0D3BD4602B080BD00030140FF000FC0D3
:101660000000F03F80B500AF024B1B68181CBD4660
:1016700080BDC046FC3F002080B582B000AF021C98
:10168000FB1D1A703B1D0A1C1A803B1D3A1D128857
:1016900003210A401A80FB1D1B780F2B13D8184B0F
:1016A000174AD26EF91D09784900081C03218140B0
:1016B000C9430A40391D0988F81D0078400081405F
:1016C0000A43DA6618E0FB1DFA1D12780F210A4062
:1016D0001A700B4B0A4A126FF91D09784900081C51
:1016E00003218140C9430A40391D0988F81D00784B
:1016F000400081400A431A67BD4602B080BDC04623
:101700000000014090B583B000AF7860081C111C48
:10171000FB1C021C1A70BB1C0A1C1A70FB1C1B78D9
:101720009B08DBB2181CFB1C1B789B08DBB21A1C45
:101730007B6804329200D358FA1C127803210A40C5
:10174000D200111CFC228A40D2431A40111C7B6833
:10175000021D9200D150FB1C1B789B08DBB21C1CA5
:10176000FB1C1B789B08DBB21A1C7B6804329200BE
:10177000D258BB1C1B78F91C097803200140C90012
:101780008B401A43111C7B68221D9200D150BD462C
:1017900003B090BD80B582B000AF7860081C111C0A
:1017A000FB1C021C1A70BB1C0A1C1A707B685B6F46
:1017B000FA1C12785200111C03228A40D2431A40AC
:1017C0007B685A677B685A6FBB1C1B78F91C0978C9
:1017D00049008B401A437B685A67BD4602B080BD02
:1017E00080B582B000AF78607B689B6BDBB27F22F4
:1017F0009343DBB2181CBD4602B080BD80B582B0F9
:1018000000AF786039607B68DA6C3B681A437B68AC
:10181000DA64BD4602B080BD80B584B000AFF86028
:10182000B960FB1D1A70FB68181C00F055FBFB68C3
:10183000124A5A63BB68DB88FA68101C191C00F056
:101840001FF8FB1D1B78002B09D0BB681A68BB680A
:101850001B79F968081C111C1A1C00F043F8FB687E
:10186000A022D2009A63FB6801225242DA64FB682C
:1018700000221A64BD4604B080BDC04603033F0782
:1018800080B582B000AF78600A1CBB1C1A80BB1CFC
:101890001A88F823DB011A40F023DB019A4213D1A6
:1018A0007B68DB6B1B0C1A04BB1C1B88FF210B40E5
:1018B0001A43BB1C1B885B00191CFE231B020B4038
:1018C0001A437B68DA6309E07B68DB6B1B0C1A0444
:1018D000BB1C1B881B021A437B68DA63BD4602B03F
:1018E00080BDC04690B587B000AFF860B960FB1D01
:1018F0001A70BB682B4A934221D8FB68DB6B2A4ADB
:101900001A40FB68DA63FB1D1B78002B0BD0BB6809
:101910001722BC18FA68101C191C0A2200F092FB4E
:10192000031C237036E01723FC18FA68BB68101CF0
:10193000191C0A2200F00CFB031C23702AE0BB6870
:101940001A4A934222D8FB68DB6B802292021A4328
:10195000FB68DA63FB1D1B78002B0BD0BB681722DA
:10196000BC18FA68101C191C192200F06BFB031C30
:1019700023700FE01723FC18FA68BB68101C191CB1
:10198000192200F0E5FA031C237003E01723FB186B
:1019900001221A701723FB181B78181CBD4607B0CC
:1019A00090BDC046A0860100FFFFFDFF801A060023
:1019B00080B584B000AF7860081C111CBB1C021CF1
:1019C0001A807B1C0A1C1A70BB1C1B888022D20048
:1019D00013439BB2FB607B1C1B78012B03D1FB687C
:1019E00001221343FB607A6884235B00D258E02312
:1019F000DB04134013D1C0467B68181CFFF7F0FED0
:101A0000031E802BF8D07A6880239B01101C191CC0
:101A1000FFF7F4FE7B688021FA685A5004E07A6888
:101A2000C0235B00F968D150BD4604B080BDC046FC
:101A300080B584B000AF7860081C111CBB1C021C70
:101A40001A807B1C0A1C1A70BB1C1B88A022D200A7
:101A500013439BB2FB607B1C1B78012B03D1FB68FB
:101A600001221343FB607A6884235B00D258E02391
:101A7000DB04134013D1C0467B68181CFFF7B0FE8F
:101A8000031E802BF8D07A6880239B01101C191C40
:101A9000FFF7B4FE7B688021FA685A5004E07A6848
:101AA000C0235B00F968D150BD4604B080BDC0467C
:101AB00080B582B000AF78607A6884235B00D2582A
:101AC000E023DB04134014D1C0467B68181CFFF7E9
:101AD00087FE031E802BF8D07A6880239B01101CA0
:101AE000191CFFF78BFE7B688021C022D2005A5060
:101AF00005E07A68C0235B00C021C900D150BD4613
:101B000002B080BD80B582B000AF78600A1CFB1CBB
:101B10001A707A6884235B00D258E023DB041340F8
:101B200014D1C0467B68181CFFF75AFE031E802B99
:101B3000F8D07A6880239B01101C191CFFF75EFE09
:101B4000FB1C1A787B6880215A5005E0FB1C197831
:101B50007A68C0235B00D150BD4602B080BDC0464C
:101B600080B582B000AF78607A6884235B00D25879
:101B7000E023DB04134014D1C0467B68181CFFF738
:101B80002FFE031E802BF8D07A6880239B01101C47
:101B9000191CFFF733FE7B688021802292005A5087
:101BA00005E07A68C0235B0080218900D150BD46E2
:101BB00002B080BD80B582B000AF78607A688423BF
:101BC0005B00D258E023DB04134014D1C0467B688D
:101BD000181CFFF705FE031E802BF8D07A688023BF
:101BE0009B01101C191CFFF709FE7B688021C02295
:101BF00092005A5005E07A68C0235B00C02189003A
:101C0000D150BD4602B080BD80B584B000AF7860D1
:101C10007A6886235B00D258E023DB04134005D1A9
:101C20007B685A6D0F23FB181A7006E07A688E23C2
:101C30005B00D2580F23FB181A700F23FB181B7878
:101C4000181CBD4604B080BD80B582B000AF78607E
:101C500039607B681A6C3968FE235B020B401A43BB
:101C60007B681A647B68DA6B3B6804490B401A4353
:101C70007B68DA63BD4602B080BDC0460000FC410F
:101C800080B582B000AF786039607B681B6C3968C2
:101C9000FE2252020A40D2431A407B681A647B68D3
:101CA000DB6B3A6804490A40D2431A407B68DA6326
:101CB000BD4602B080BDC0460000FC4180B588B082
:101CC00000AF78603960EFF310837B617B693B6123
:101CD00072B63B69FB610C4B04225A630A4B7A686B
:101CE0001A62094B3A685A62074B9B6ABB61FB69EF
:101CF000FB60FB68BB60BB6883F31088BB69181C82
:101D0000BD4608B080BDC0460000034080B588B025
:101D100000AF78603960EFF310837B617B693B61D2
:101D200072B63B69FB610C4B00225A630A4B7A681E
:101D30001A62094B3A685A62074B9B6ABB61FB699E
:101D4000FB60FB68BB60BB6883F31088BB69181C31
:101D5000BD4608B080BDC0460000034080B582B0DB
:101D600000AF786039607B68DA6C3B681A437B6847
:101D7000DA64BD4602B080BD80B584B000AFF860C3
:101D8000B960FB1D1A70FB68181C00F0A5F8BB6851
:101D90005B79002B19D1FB1D1B78002B15D0BB687C
:101DA0001B79002B09D0BB681B681A1CFB68181C28
:101DB000111C022200F046F907E0BB681B68FA68B4
:101DC000101C191C022200F0C3F8FB680E4A5A636B
:101DD000FB68A222D2009A63BB685B79002B07D113
:101DE000BB689B790B221343DBB21A1CFB68DA63D6
:101DF000FB6801225242DA64BB681B891A1CFB682B
:101E00001A64BD4604B080BD02013F0780B582B0B0
:101E100000AF786039607B68DB6B064A1A407B68EC
:101E2000DA637B68DA6B3B681A437B68DA63BD462A
:101E300002B080BDFFFF00FF80B582B000AF7860C8
:101E40007B68181C0121FFF789FF7B68DB6B034A65
:101E50001A407B68DA63BD4602B080BDFFFF00FF19
:101E600080B584B000AF78607A6886235B00D25872
:101E7000E023DB04134005D17B685A6D0E23FB1869
:101E80001A8006E07A688E235B00D2580E23FB1876
:101E90001A800E23FB181B88181CBD4604B080BD99
:101EA00080B582B000AF786039607B681B6C3968A0
:101EB000FE2252020A40D2431A407B681A647B68B1
:101EC000DB6B3A6852031204120CD2431A407B684F
:101ED000DA63BD4602B080BD80B582B000AF7860E5
:101EE0007A689023DB059A4203D07B68134A9342B9
:101EF00004D1134B181C00F00FFA0BE07B68114A59
:101F0000934203D07B68104A934203D10F4B181CB5
:101F100000F002FA7B680322DA60C0467B68DB6867
:101F200001221340FAD07B681B6C0F2293431A1CCA
:101F30007B681A64BD4602B080BDC04600020048FE
:101F4000080000480040004800420048084000489F
:101F500080B58EB000AFF860B9607A60BB68632B63
:101F600060D97B68002B5DD0FFF77CFB031C181C3D
:101F70006421FFF7A3FE031C3B62BB68181C6421AD
:101F8000FFF79CFE031CBB608023DB00FB62012388
:101F9000BB622A4B7B628023DB003B6325E03B6A0C
:101FA0003A6B5A43111CBB687A685343081C191CCE
:101FB000FFF784FE031CFB61FB699B0ABB61FB69A5
:101FC0009B059B0D7B61BA698023DB009A4209D88F
:101FD0007A697B6A9A4205D27B697B62BB69BB6284
:101FE0003B6BFB623B6B013B3B633B6B002BD6D1F6
:101FF000FB6A013B802212021A43FB681A61FB68EC
:102000005B690F4A1A407B68013B9B021A43BB6A1B
:10201000013B1B041A43FB685A613723FB1800225B
:102020001A7003E03723FB1801221A703723FB18BC
:102030001B78181CBD460EB080BDC046FF030000D3
:10204000EF8000FC80B58CB000AFF860B9607A60BA
:10205000FFF708FB031C3B62BB687A685343FB61D4
:102060000123FB623A6AFB699A4262DD386AF969C8
:10207000FFF74CFE031CBB620FE0FB6A0133FB62FF
:10208000BB687A6853431A1CFB6A5343FB61386A86
:10209000F969FFF73BFE031CBB62BB6A2A4A934205
:1020A000EBD8396A7B68BA6A5343FA6A5343081C0F
:1020B000191CFFF703FE031CBB61396ABB6A0133BD
:1020C0007A685343FA6A5343081C191CFFF7F6FD5C
:1020D000031C7B61BA687B69D31AD9175A184A4026
:1020E000B968BB69CB1AD9175B184B409A4202DA20
:1020F000BB6A0133BB62BB6A8022D200D31ABB62C7
:10210000BB6A8022D2011A43FB681A61FB685B69D3
:102110000E4A1A407B68013B9B021A43FB6A013B53
:102120001B041A43FB685A612723FB1800221A700C
:1021300003E02723FB1801221A702723FB181B78C2
:10214000181CBD460CB080BDFE030000EF8000FCF3
:1021500080B584B000AFF860B9603B60FB1D1A70B9
:10216000FA6884235B00D3580E4A1340191CFA689E
:1021700084235B00D150FA6884235B00D3580A4A59
:102180001A403B681902BB681943FB1D1B781B06EC
:102190000B431A43111CFA6884235B00D150BD46DF
:1021A00004B080BDFFFFFFF8C0C0FFF880B584B069
:1021B00000AFF860B9603B60FB1D1A70FA688623B7
:1021C0005B00D358104A1340191CFA6886235B0041
:1021D000D150FA6886235B00D3580C4A1A403B68FA
:1021E0001902BB681943FB1D1B781B060B431343E5
:1021F000802252051A43111CFA6886235B00D150D5
:10220000BD4604B080BDC046FFFFFFF8C0C0FFEF71
:1022100080B584B000AFF8607A600B23FB180A1C0D
:102220001A70FA6886235B00D358064A1A407B6806
:102230001B021A43111CFA6886235B00D150BD466D
:1022400004B080BDFFC0FFFF80B584B000AFF86070
:102250007A600B23FB180A1C1A70FB689B690B221F
:10226000BA181278072191400A1CD2431A400B2356
:10227000FB181B78796899400B1C1A43FB689A611C
:10228000BD4604B080BDC04680B584B000AFF860E4
:102290007A600B23FB180A1C1A70FA6884235B000F
:1022A000D3580B22BA181278072191400A1CD24346
:1022B0001A400B23FB181B78796899400B1C1A43B2
:1022C000111CFA6884235B00D150BD4604B080BD68
:1022D00080B584B000AFF8607A600B23FB180A1C4D
:1022E0001A70FA6886235B00D3580B22BA1812784A
:1022F000072191400A1CD2431A400B23FB181B787C
:10230000796899400B1C1A43111CFA6886235B00FC
:10231000D150BD4604B080BD80B582B000AF7860BA
:102320007B68104A934209D10820FFF7B9F8C046EC
:102330000820FFF7CFF8031EFAD110E07B680A4AA5
:1023400093420CD18023DB02181CFFF7A9F8C0468A
:102350008023DB02181CFFF7BDF8031EF8D1BD4631
:1023600002B080BD080000480840004880B500AFBA
:10237000BD4680BD80B584B000AFF8607A600A23A6
:10238000FB180A1C1A800A23FB181988FB687A6854
:1023900020329200D150BD4604B080BD80B582B0DD
:1023A00000AF786039607B681A6C3B681A437B68C1
:1023B0001A64BD4602B080BD80B582B000AF7860BF
:1023C00039607B681B6C3A68D2431A407B681A6498
:1023D000BD4602B080BDC04680B582B000AF786017
:1023E0007B689B6BDBB27F229343DBB2181CBD463C
:1023F00002B080BD80B582B000AF78607B681A6D96
:10240000C023DB011340181CBD4602B080BDC0468E
:1024100080B582B000AF786039603B68802252029C
:102420009A407B689A66BD4602B080BD80B582B096
:1024300000AF786039607A6884235B00D2583B68CB
:102440001A43111C7A6884235B00D150BD4602B048
:1024500080BDC04680B582B000AF786039607A68D0
:1024600084235B00D3583A68D2431A40111C7A681F
:1024700084235B00D150BD4602B080BD80B584B0DE
:1024800000AFF8607A600A23FB180A1C1A800A233E
:10249000FB181988FB687A6860329200D150BD46FB
:1024A00004B080BD80B582B000AF78607A688C23BC
:1024B0005B0080210902D150BD4602B080BDC046FC
:1024C00080B582B000AF78607A688A235B00D2580A
:1024D00080235B0113405A1E9341DBB2181CBD469A
:1024E00002B080BD80B582B000AF78607A688A2380
:1024F0005B00D25880231B0113405A1E9341DBB26C
:10250000181CBD4602B080BD80B582B000AF7860B7
:1025100039607A6886235B00D2583B681A43111CE5
:102520007A6886235B00D150BD4602B080BDC046AC
:1025300080B582B000AF786039607A6886235B002E
:10254000D3583A68D2431A40111C7A6886235B003C
:10255000D150BD4602B080BD80B582B000AF78607A
:102560007A688C235B008021C901D150BD4602B03E
:1025700080BDC04680B582B000AF78607A688A239B
:102580005B00D358082213405A1E9341DBB2181C3B
:10259000BD4602B080BDC04680B582B000AF786055
:1025A0000A1CFB1C1A707B681B6CC02293431A1C0C
:1025B000FB1C1B789B01FF210B401A437B681A64AC
:1025C000BD4602B080BDC04690B585B000AF786012
:1025D0007B685B685B680F22BC189847031C2370FC
:1025E0000F23FB181B78181CBD4605B090BDC046D4
:1025F00090B587B000AFF860B9607A601723FB1818
:1026000001221A70FB685B6884229B5C002B0BD153
:102610001723FC18F968BA687B68081C111C1A1C7F
:1026200000F00AF8031C23701723FB181B78181CF2
:10263000BD4607B090BDC04680B588B000AFF86019
:10264000B9607A600123BB611F23FB1804221A7052
:10265000FB689B687B61FB685B6884229B5C002B4A
:1026600064D1BB68002B5DD07B68002B5AD01F2340
:10267000FB1802221A707B6920229B5CDBB20122CC
:102680005340DBB2002B4CD0FB689B681B68082BC7
:1026900001D90223BB617B69BA689A61BB69013BBE
:1026A0001A1C7B6893401A1C7B695A607B69002264
:1026B0009A607B69202201219954FB685B687C2227
:1026C0009B5C002B0DD0FB681B68181CFFF7EAFE13
:1026D000FB681A688023DB05101C191CFFF7A6FE97
:1026E00007E0FB681A6880239B01101C191CFFF788
:1026F00055FEFB681A687B691B7FDBB2101C191C36
:10270000FFF74AFF1F23FB1800221A70FB681968A5
:10271000FB685B6889229B5C081C191CFFF778FE2C
:1027200004E003E01F23FB1803221A701F23FB1889
:102730001B78181CBD4608B080BDC04690B587B058
:1027400000AFF860B9607A603B601723FB18022283
:102750001A70FB689B683B613B691B7FDBB2002BF7
:1027600045D1BB68002B3CD07B68002B39D03B683F
:10277000002B36D03B69DB7FDBB201225340DBB25A
:10278000002B2DD03B6920229B5CDBB20122534001
:10279000DBB2002B24D03B690122DA773B697A68EF
:1027A0005A613B69BA689A613B693A685A603B6909
:1027B0002122002199543B69222200219954FB686F
:1027C0005B6885229B5C002B0AD11723FC18FA68F2
:1027D0003B68101C191C00F00DF9031C237005E068
:1027E00004E01723FB1803221A7004E003E0172308
:1027F000FB1801221A701723FB181B78181CBD4602
:1028000007B090BD90B587B000AF786001233B6101
:102810007B689B68FB607B689B681B68082B01D901
:1028200002233B61FB689A68FB685B689A4200D3AD
:102830009BE01623FB1800221A807B685B687C22D1
:102840009B5C002B53D045E0FB689A68FB685B6893
:102850009A423DD2FB6821229B5CDBB2002B0CD05C
:102860007B681A68FB681B7FDBB21C1C604B101C6A
:10287000191C221CFFF702FE23E03B69022B09D141
:10288000FB689A69FB689B68D2181623FB181288AC
:102890001A8008E0FB689A69FB689B68D3181A786D
:1028A0001623FB181A807B681A68FB681B7FDBB253
:1028B0001C1C1623FB181B88101C191C221CFFF75C
:1028C000DDFDFB689A683B69D218FB689A6001E0FD
:1028D000C04689E07B681B68181CFFF7F1FD031CEC
:1028E0001A1C01235340DBB2002BADD17CE0FB6806
:1028F00021229B5CDBB2002B0CD07B681A68FB6842
:102900001B7FDBB21C1C3A4B101C191C221CFFF74E
:1029100031FD23E03B69022B09D1FB689A69FB6812
:102920009B68D2181623FB1812881A8008E0FB68EF
:102930009A69FB689B68D3181A781623FB181A80CB
:102940007B681A68FB681B7FDBB21C1C1623FB1814
:102950001B88101C191C221CFFF70CFDFB689A68D1
:102960003B69D218FB689A603EE07B681B68181CC4
:10297000FFF7B8FD031E37D07B685B687C229B5C49
:10298000002B08D07B681A688023DB05101C191CFB
:10299000FFF760FD07E07B681A6880239B01101C2D
:1029A000191CFFF709FDC0467B681B68181CFFF760
:1029B00013FD031E802BF7D0FB68202200219954C1
:1029C000FB6800229A617B685B681B6F002B0BD051
:1029D000FB68DB7FDBB201225340DBB2002B03D06C
:1029E0007B685B681B6F9847BD4607B090BDC046CB
:1029F000FFFF000090B587B000AF78603960012319
:102A00007B617B689B683B613B6900221A617B6844
:102A10009B681B68082B01D902237B617B69013B02
:102A20001A1C3B6893401A1C3B69DA607B685B6840
:102A30007D229B5C002B19D07B681B68181CFFF75C
:102A40008BFD7B681B68181C00F0BAF93B69DB68DA
:102A50007A68101C191C00F07BF97B681A68C02387
:102A6000DB05101C191CFFF74FFD0CE07B681B6891
:102A7000181C00F0A5F97B681A68C0231B02101C03
:102A8000191CFFF78BFC3B699A693B695B680F2156
:102A90007C187968081C111C1A1CFFF7A9FD031C7F
:102AA00023700F23FB181B78181CBD4607B090BD80
:102AB00090B587B000AF786001237B617B689B682D
:102AC0003B610E23FB1800221A807B689B681B6801
:102AD000082B01D902237B617B685B687D229B5CAC
:102AE000002B20D07A687B69101C191C00F0C4F8F8
:102AF0003B69DA683B691B69D21A7B685B687D2198
:102B00005B5C013B012199400B1C9A4200D9B0E06B
:102B10003B69DA683B691B69D31A7A68101C191C77
:102B200000F016F9A5E07B681B68181CFFF762FC33
:102B3000021C80239B0113402ED03B691A693B691C
:102B4000DB689A4228D27B681B680E22BC18181CCE
:102B5000FFF786F9031C23803B695A693B691B69AF
:102B6000D3180E22BA181288D2B21A707B69022BBF
:102B70000CD13B695A693B691B690133D3180E229A
:102B8000BA181288120A92B2D2B21A703B691A6944
:102B90007B69D2183B691A617B681B68181CFFF7B8
:102BA00029FC021C8023DB0113402ED03B691A69EB
:102BB0003B69DB689A4228D27B681B680E22BC18EE
:102BC000181CFFF74DF9031C23803B695A693B69C8
:102BD0001B69D3180E22BA181288D2B21A707B69F8
:102BE000022B0CD13B695A693B691B690133D3182D
:102BF0000E22BA181288120A92B2D2B21A703B6927
:102C00001A697B69D2183B691A613B691A693B6989
:102C1000DB689A422DD17B685B687D229B5C002B30
:102C200008D07B681A68C023DB05101C191CFFF74D
:102C30007FFC07E07B681A68C0231B02101C191C6C
:102C4000FFF72EF93B690022DA773B692122002148
:102C500099543B692222012199543B6900225A610F
:102C60007B685B685B6F002B03D07B685B685B6F86
:102C70009847BD4607B090BD90B585B000AF78606D
:102C800039607B689B68FB600A23FB1800221A806E
:102C90004EE0FB681A69FB68DB689A4228D27B68C1
:102CA0001B680A22BC18181CFFF7DAF8031C2380E3
:102CB000FB685A69FB681B69D3180A22BA18128884
:102CC000D2B21A703B68022B0CD1FB685A69FB68C0
:102CD0001B690133D3180A22BA181288120A92B259
:102CE000D2B21A70FB681A693B68D218FB681A6185
:102CF000FB681A69FB68DB689A4219D1FB680022FD
:102D0000DA77FB682122002199547B681A68C02376
:102D1000DB05101C191CFFF70BFC7B685B685B6F05
:102D2000002B04D07B685B685B6F98470CE00BE07E
:102D30007B681B68181CFFF71DFC031C1A1C012371
:102D40005340DBB2002BA4D1BD4605B090BDC046B8
:102D500080B584B000AF786039607B685B687D22A5
:102D60009B5C002B29D03B68002B26D07B685B68DE
:102D70007D229B5C013B01229A40131CBB607B6857
:102D80009B681B68082B02D93B685B083B603A686C
:102D9000BB689A4203D83B68013BFB6001E0BB681B
:102DA000FB607B6819687B685B687D229A5CFB68C6
:102DB000081C111C1A1CFFF72BFABD4604B080BD7D
:102DC00080B582B000AF78607B68181CFFF748F8C8
:102DD0007B68181CFFF744F8BD4602B080BDC046B2
:102DE00080B582B000AF021CFB1D1A70FB1D1B7862
:102DF0007F2B09D8064BFA1D1278111C1F220A409E
:102E0000012191400A1C1A60BD4602B080BDC04637
:102E100000E100E0B0B582B000AF021C3960FB1DDC
:102E20001A70FB1D1B787F2B27D82D4CFB1D1B78A0
:102E30005BB29B082A49FA1D127852B29208C0323E
:102E400092005258F91D0978081C03210140C9005D
:102E5000081CFF218140C94311403A689201FF20BC
:102E60000240F81D0078051C03202840C000824065
:102E70000A43C0339B001A512EE01A4CFB1D1B78ED
:102E80001A1C0F231340083B9908164AFB1D1B7898
:102E9000181C0F230340083B9B0806339B00D318E4
:102EA0005B68FA1D1278101C03220240D200101C2D
:102EB000FF228240D2431A403B689B01FF2003401F
:102EC000F81D0078051C03202840C00083401A43E9
:102ED0008B1D9B00E3185A60BD4602B0B0BDC046D2
:102EE00000E100E000ED00E080B582B000AF786066
:102EF000081C111CFB1C021C1A70BB1C0A1C1A703B
:102F0000FB1C1878FB1C1B787A6806339B00D318CF
:102F10005B68072293431A1CBB1C1B781A43796811
:102F2000831D9B00CB185A60BD4602B080BDC046D1
:102F300080B582B000AF78600A1CFB1C1A707B68F9
:102F40005B6B064A1A40FB1C1B78013B1B061A43AD
:102F50007B685A63BD4602B080BDC046FFFFFFF0EC
:102F600080B582B000AF78600A1CFB1C1A707B68C9
:102F70005B6B064A1A40FB1C1B78013B1B041A437F
:102F80007B685A63BD4602B080BDC046FFFFC0FFEC
:102F900080B584B000AFF860B9607A60FB685B69A7
:102FA000054A1A40BB681A437B681A43FB685A619A
:102FB000BD4604B080BDC046FFFFFF2F80B582B084
:102FC00000AF78600A1CFB1C1A707B681B6C0F2218
:102FD00093431A1CFB1C1B781A437B681A64BD467A
:102FE00002B080BD80B582B000AF786039607A6889
:102FF0003B68101C191C0122FEF7BEFEBD4602B044
:1030000080BDC04680B582B000AF78607B68181C78
:103010000121FFF7D3FFBD4602B080BD80B582B06D
:1030200000AF78607B685B6B01221A437B685A6350
:10303000BD4602B080BDC04680B582B000AF7860AA
:1030400039607B685B69074A1A403B68013B9B0219
:103050001343802252001A437B685A61BD4602B076
:1030600080BDC046FF80FFFF80B584B000AFF86030
:10307000B9607A60F968BA687B68081C111C1A1C70
:10308000FFF786FFBD4604B080BDC04680B582B064
:1030900000AF78600A1CFB1C1A707A68FB1C1B7856
:1030A000101C191CFFF744FFBD4602B080BDC0468E
:1030B00080B582B000AF78600A1CFB1C1A707A6879
:1030C000FB1C1B78101C191CFFF74AFFBD4602B001
:1030D00080BDC04680B582B000AF7860081C111C6E
:1030E000FB1C021C1A70BB1C0A1C1A70FB1C1878F3
:1030F000FB1C1B787A6806339B00D3185B68502250
:10310000934310221A437968831D9B00CB185A60A1
:103110007968FB1C1A78BB1C1B78081C111C1A1C34
:10312000FFF7E2FEBD4602B080BDC04680B582B06A
:1031300000AFFB1D00221A704D4A4E4B101C191C8B
:10314000FFF750FF4A4B181CFFF768FF484B181C4D
:103150000821FFF79BFF464B181C4021FFF7A8FFF3
:10316000434B181C00210022FFF77EFF404B181C28
:103170000121FFF761FF404A404B101C00211A1C3F
:10318000FEF702F83A4B181C00210022FFF7A2FFBD
:10319000374B181C03210022FFF79CFF344B181CEF
:1031A00004210022FFF796FF314B181C0521002255
:1031B000FFF790FF2E4B181CFFF724FF304A314BCE
:1031C000101C00211A1CFDF7DFFF2B4A2E4B101C90
:1031D00001211A1CFDF7D8FF2C4A2D4B101C012190
:1031E0001A1CFDF7D1FF224A8023DB02101C191C98
:1031F000FEF70CFE1E4B181C04210122FFF724F8D9
:103200001B4B181C10210122FFF71EF8184B181C2D
:10321000002106220023FEF7C9FF154B181C1021C0
:103220000022FFF755F8124B181C13210022FFF75C
:103230004FF80A200321FFF7EDFD164B0A20191C59
:10324000FEF71AFA0A20FFF7CBFD09200221FFF74B
:10325000E1FD114B0920191CFEF70EFA0920FFF7BA
:10326000BFFDFB1D1B78181CBD4602B080BDC046CB
:1032700000420048600500200000044028060020AD
:103280000003044050050020605200100004044078
:1032900078520010010A00000109000080B500AF5B
:1032A000024B181CFFF7AEFABD4680BD900500200A
:1032B00080B500AF024B181CFFF7FAFBBD4680BD7E
:1032C0009005002080B582B000AFFB1D00221A706F
:1032D0009023DA055A4B101C191CFFF783FE90232C
:1032E000DB05181CFFF79AFE9023DB05181C08214C
:1032F000FFF7CCFE9023DB05181C4021FFF7D8FE1A
:103300009023DA058023DB05101C191C0022FFF72F
:10331000ABFE9023DB05181C0121FFF78DFE494A07
:10332000494B101C04211A1CFDF72EFF9023DB05CE
:10333000181C00210622FFF7CDFE9023DB05181C88
:1033400003210522FFF7C6FE9023DB05181C04218C
:103350000022FFF7BFFE9023DB05181C0521042285
:10336000FFF7B8FE9023DB05181CFFF74BFE354A2C
:10337000364B101C05211A1CFDF706FF344A354B4D
:10338000101C07211A1CFDF7FFFE2E4A324B101CA1
:1033900006211A1CFDF7F8FE9023DA058023DB02D4
:1033A000101C191CFEF732FD9023DB05181C1021A0
:1033B0000022FEF749FF9023DB05181C3021042270
:1033C0000123FEF7C5FE9023DB05181C1021042203
:1033D000FEF75AFF9023DB05181C2021042200234E
:1033E000FEF7E4FE9023DB05181C10210222FEF7F5
:1033F0006FFF9023DB05181C13210222FEF768FFE4
:103400000D200321FFF706FDD0231B010D20191C01
:10341000FEF732F90D20FFF7E3FC0B200221FFF746
:10342000F9FCB0231B010B20191CFEF725F90B201A
:10343000FFF7D6FCFB1D1B78181CBD4602B080BDF3
:10344000AC05002000010440380600209C05002047
:10345000000004402C5300104453001080B500AF0E
:10346000024B181CFFF7CEF9BD4680BDDC050020DD
:1034700080B500AF024B181CFFF71AFBBD4680BD9C
:10348000DC05002080B582B000AF021CFB1D1A7065
:10349000FB1D1B787F2B0AD80649FB1D1B781A1CC5
:1034A0001F23134001229A40C0235B00CA50BD462F
:1034B00002B080BD00E100E080B582B000AF78606E
:1034C00039607B681B6C3A68D2431A407B681A6487
:1034D000BD4602B080BDC04680B582B000AF786006
:1034E0007B689B6BDBB27F229343DBB2181CBD462B
:1034F00002B080BD80B582B000AF786039603B68B3
:10350000802252029A407B689A66BD4602B080BD16
:1035100080B582B000AF786039607A6884235B0040
:10352000D2583B681A43111C7A6884235B00D1503F
:10353000BD4602B080BDC04680B582B000AF7860A5
:1035400039607A6884235B00D3583A68D2431A40C2
:10355000111C7A6884235B00D150BD4602B080BD47
:1035600080B582B000AF78607A688A235B00D25859
:1035700080235B0113405A1E9341DBB2181CBD46E9
:1035800002B080BD80B582B000AF78607A688A23CF
:103590005B00D25880231B0113405A1E9341DBB2BB
:1035A000181CBD4602B080BD80B582B000AF786007
:1035B00039607A6886235B00D3583A68D2431A4050
:1035C000111C7A6886235B00D150BD4602B080BDD5
:1035D00080B582B000AF78607A688A235B00D358E8
:1035E000082213405A1E9341DBB2181CBD4602B09C
:1035F00080BDC04680B582B000AF78600A1CFB1C5D
:103600001A70FB1C1B787A68101C10211A1CFEF71C
:103610001BFEBD4602B080BD80B582B000AF7860B1
:103620007B689B6C181CBD4602B080BD80B582B023
:1036300000AF786039607B68DA6C3B681A437B685E
:10364000DA64BD4602B080BD80B584B000AFF860DA
:10365000B9607A60FB681968BB68DAB27B68081CDD
:10366000111C1A1CFEF7D4FDBD4604B080BDC04637
:1036700080B582B000AF78607B681B68181CFFF7CC
:103680006FFF031C181CBD4602B080BD80B582B020
:1036900000AF78607B681B68181CFFF799FF031C5C
:1036A000181CBD4602B080BD80B582B000AF786006
:1036B0007B681B68181CFEF7A7FA031C181CBD4684
:1036C00002B080BD80B582B000AF78600A1CFB1CE0
:1036D0001A707B681A68FB1C1B78101C191CFEF7FB
:1036E00011FABD4602B080BD80B582B000AF7860EF
:1036F00039607B681A683B68101C191CFEF7A4FA35
:10370000BD4602B080BDC04680B582B000AF7860D3
:1037100039607B681A683B68101C191CFEF7B0FA08
:10372000BD4602B080BDC04680B582B000AF7860B3
:103730007B681B68181CFEF713FABD4602B080BDFB
:1037400080B582B000AF78607B681B68181CFEF7FC
:1037500031FABD4602B080BD80B582B000AF78605E
:103760007B681B68181C1021FFF760FF7B681B68D3
:10377000181CFEF79DF9BD4602B080BD80B584B02F
:1037800000AFF860B960FB1D1A70FB681B68181C5D
:103790000421FFF74BFFFB681968BB689AB2FB1D59
:1037A0001B78081C111C1A1CFEF702F9BD4604B058
:1037B00080BDC04680B584B000AFF860B960FB1D25
:1037C0001A70FB681B68181C0821FFF72FFFFB68A5
:1037D0001968BB689AB2FB1D1B78081C111C1A1CC7
:1037E000FEF726F9BD4604B080BDC04680B584B062
:1037F00000AF786039607A683B689A4202D27B6891
:10380000FB6001E03B68FB60FB68181CBD4604B030
:1038100080BDC04680B584B000AF78607B68002B67
:1038200008D07B685B685B6898470F23FB18002211
:103830001A7003E00F23FB1801221A700F23FB18E4
:103840001B78181CBD4604B080BDC04680B584B04E
:1038500000AF786039607B681B68181CFFF7DCFEDE
:10386000031CFB60FB683A681340181CBD4604B09B
:1038700080BDC04680B582B000AF786039607B689B
:103880001A683B68101C191CFFF7D0FEBD4602B039
:1038900080BDC046B0B588B002AFF8607A603B60CA
:1038A0000B23FB180A1C1A701723FB1802221A702C
:1038B000FB685B6824229B5C002B12D11723FC1849
:1038C000F8680B23FB1819787A683D68BB6A009387
:1038D0002C23FB181B7801932B1C00F0BBF9031C55
:1038E00023701723FB181B78181CBD4606B0B0BD0B
:1038F00080B584B000AF78607B689B68BB600F23A5
:10390000FB1800221A707A68B1235B00101C191C86
:10391000FFF79CFF031E14D07B681A688023DB0529
:10392000101C191CFFF708FE7B681A6880239B0196
:10393000101C191CFFF7C0FD7B68181C00F0AAFBC7
:103940001FE1BB689B69002B00D08CE07B685B6843
:1039500026229B5C002B63D0BB68DA68BB689B683F
:103960009A4234D27A688023DB05101C191CFFF7B9
:10397000CBFE7B681A688023DB05101C191CFFF73F
:10398000C7FD18E0BB68DA68BB689B689A4210D232
:10399000BB681A68BB68DB68D3181B787A68101C90
:1039A000191CFFF78FFEBB68DB685A1CBB68DA6026
:1039B00001E0C046E5E07B68181CFFF759FE031CD8
:1039C0001A1C01235340DBB2002BDBD1D9E07B680A
:1039D0001A688023DB05101C191CFFF7ADFD7B68FE
:1039E0005B6828229B5C5BB2181CFFF74BFDC0464E
:1039F0007B681B68181CFFF7C5FD031C1A1C0123FC
:103A00005340DBB2002BF3D1BB6828229B5CDBB2B6
:103A1000002B00D1B5E07B68181C00F0B5F8B0E0D1
:103A2000BB68DA68BB689B689A4210D2BB681A68A8
:103A3000BB68DB68D3181B787A68101C191CFFF769
:103A400041FEBB68DB685A1CBB68DA6099E0BB6862
:103A500028229B5CDBB2002B00D192E07B68181C13
:103A600000F092F88DE07B685B6826229B5C002B5F
:103A70005FD07B685B6827229B5C002B17D07B683C
:103A80005B6826229B5C1A1C01239340191C7B68EF
:103A90005B6827229B5C1A1C01239340081C191C9D
:103AA000FFF7A4FE021C0F23FB181A7003E00F237C
:103AB000FB1802221A707B681A688023DB05101C31
:103AC000191CFFF739FD27E0BB68DA68BB689B6803
:103AD0009A4220D2BB68DB685A1CBB689B689A423A
:103AE00008D1BB681B6A012B04D17B68181CFFF747
:103AF00027FE03E07B68181CFFF716FEBB68DB6837
:103B00005A1CBB68DA60BB68DA680F23FB181B78A5
:103B10009A4201D30CE00BE07B68181CFFF7A8FD6C
:103B2000031C1A1C01235340DBB2002BCCD119E03B
:103B300018E0BB68DB685A1CBB689B689A4208D1D6
:103B4000BB681B6A012B04D17B68181CFFF7F8FDCA
:103B500003E07B68181CFFF7E7FDBB68DB685A1CB5
:103B6000BB68DA607B689B68DA687B689B689B68E7
:103B70009A4206D17A688023DB05101C191CFFF7D6
:103B8000C3FDBD4604B080BD80B584B000AF786091
:103B90007B689B68FB607A688023DB05101C191C1E
:103BA000FFF7B2FDFB68DB69012B07D1FB68282218
:103BB000002199547B68181CFFF7CEFDC0467B6836
:103BC0001B68181CFFF788FC031E802BF7D0FB68CE
:103BD0002622002199547B685B681B69002B03D067
:103BE0007B685B681B699847BD4604B080BDC046D2
:103BF00080B584B000AFF860B960FB1D1A70FB6837
:103C00001B68181C0C21FFF711FDFB689B6828221C
:103C10009B5CDBB2002B0AD0BB689BB2191CFA6814
:103C2000FB1D1B78101C1A1CFFF7C4FD0EE0FB687F
:103C30009B68282201219954BB689BB2191CFA6821
:103C4000FB1D1B78101C1A1CFFF798FDBD4604B025
:103C500080BDC04680B588B000AFF8607A603B6038
:103C60000B23FB180A1C1A701F23FB1802221A7060
:103C7000FB689B687B610B23FB181B780122534078
:103C8000DBB2002B09D0FB689B6828229B5CDBB26F
:103C900001225340DBB2002B05D13B68002B02D040
:103CA000BB6A002B04D11F23FB1801221A7065E0A8
:103CB0007B6900229A617B6926229B5CDBB2012230
:103CC0005340DBB2002B59D07B693A681A607B699C
:103CD000BA6A9A607B690022DA607B692622012138
:103CE00099542C23FB181A787B69DA61FA688023CF
:103CF000DB05101C191CFFF7F7FCFB6819687B69D2
:103D000024229B5C081C191CFFF774FC0B23FB1876
:103D10001B78002B25D0FA687B68101C191C002228
:103D2000FFF766FF194BBB61C046FB681B68181C98
:103D3000FFF772FC021C0C23134005D1BB69013B49
:103D4000BB61BB69002BF0D1BB69002B04D11F23E1
:103D5000FB1804221A7011E01F23FB1800221A70AE
:103D60000CE0FB6819687B6924229B5C081C191C09
:103D7000FFF7C0FB1F23FB1800221A701F23FB183C
:103D80001B78181CBD4608B080BDC046FF7F0000F0
:103D900090B585B000AF78607B689B68BB600F23EF
:103DA000FB1800221A70BB6827229B5CDBB2002B39
:103DB00000D132E17B685B6827229B5C002B00D13D
:103DC000E3E022E0BB685A68BB685B69D4187B6893
:103DD000181CFFF769FC031C2370BB685B695A1C45
:103DE000BB685A61BB685A69BB681B699A420CD1AF
:103DF000BB682722002199547B681A68C023DB0521
:103E0000101C191CFFF7D0FB0AE07B68181CFFF799
:103E10003DFC031C1A1C01235340DBB2002BD1D103
:103E2000BB685A69BB681B699A4200D38CE0BB68C7
:103E30001A69BB685B69D31A7A68101C191C00F0F8
:103E400071F97B685B6826229B5C002B17D07B682E
:103E50005B6826229B5C1A1C01239340191C7B681B
:103E60005B6827229B5C1A1C01239340081C191CC9
:103E7000FFF7BCFC021C0E23FB181A7003E00E2394
:103E8000FB1802221A707B685B6826229B5C002B61
:103E900041D033E0BB68DA68BB689B689A422CD299
:103EA000BB68DB685A1CBB689B689A4208D1BB6838
:103EB0001B6A012B04D17B68181CFFF741FC03E04F
:103EC0007B68181CFFF730FCBB68DB685A1CBB68BA
:103ED000DA600F23FB180F22BA18127801321A7019
:103EE0000F23FA180E23FB1812781B789A4205D379
:103EF0000F23FB1800221A700CE00BE07B68181CE3
:103F0000FFF7B6FB031C1A1C01235340DBB2002B46
:103F1000C0D119E018E0BB68DB685A1CBB689B681D
:103F20009A4208D1BB681B6A012B04D17B68181C1C
:103F3000FFF706FC03E07B68181CFFF7F5FBBB6886
:103F4000DB685A1CBB68DA60BB685A69BB681B69CE
:103F50009A4262D17B681A68C023DB05101C191CC9
:103F6000FFF722FB7B681A68C0231B02101C191C78
:103F7000FFF7A2FABB6828229B5CDBB2002B4CD077
:103F80007B68181C00F04CF847E0BB685A68BB68B7
:103F90005B69D4187B68181CFFF786FB031C237031
:103FA000BB685B695A1CBB685A61BB685A69BB68CD
:103FB0001B699A421FD2BB68DA68BB689B689A4249
:103FC0002BD2BB68DA68BB689B68013B9A4208D178
:103FD000BB681B6A012B04D17B68181CFFF7B0FB80
:103FE00003E07B68181CFFF79FFBBB68DB685A1C6B
:103FF000BB68DA6011E07B681A68C0231B02101CE2
:10400000191CFFF759FABB6828229B5CDBB2002B16
:1040100003D07B68181C00F003F8BD4605B090BDC6
:1040200080B584B000AF78607B689B68FB60FB68FC
:10403000DB69012B10D1C0467B681B68181CFFF799
:104040004BFA031E802BF7D0FB68282200219954DD
:104050007B68181CFFF780FBC0467B681B68181C38
:10406000FFF73AFA031E802BF7D0FB6827220021C6
:104070009954FB682622002199547B685B685B6930
:10408000002B03D07B685B685B699847BD4604B032
:1040900080BDC04680B584B000AF78607B681B6887
:1040A000181CFFF7B9FA031CFB607B685B689B690F
:1040B000002B0CD0FB682022134008D07B68181C12
:1040C0002021FFF7D7FB7B685B689B6998477B687B
:1040D0005B68DB69002B0CD0FB684022134008D0E2
:1040E0007B68181C4021FFF7C5FB7B685B68DB69B8
:1040F00098477B685B681B6A002B0FD0FA688123A6
:104100005B0013400AD07A6880235B00101C191CE6
:10411000FFF7B0FB7B685B681B6A9847BD4604B03D
:1041200080BDC04680B586B000AF786039607B68DE
:104130005B6827229B5C1A1C012393401A1C1623E0
:10414000FB181A707B685B6826229B5C002B0BD0E7
:104150007B685B6826229B5C1A1C012393401A1C17
:104160001723FB181A7003E01723FB1801221A709B
:104170001723FB181A781623FB181B78101C191C20
:10418000FFF734FB031C3B613A683B69101C191CA8
:10419000FFF72CFB021C0F23FB181A707B685B686F
:1041A00027229B5C191C0F23FB181B78013B7A68A4
:1041B000101C1A1CFFF748FABD4606B080BDC04669
:1041C00080B582B000AF021CFB1D1A70FB1D1B786E
:1041D0007F2B09D8064BFA1D1278111C1F220A40AA
:1041E000012191400A1C1A60BD4602B080BDC04644
:1041F00000E100E0B0B582B000AF021C3960FB1DE9
:104200001A70FB1D1B787F2B27D82D4CFB1D1B78AC
:104210005BB29B082A49FA1D127852B29208C0324A
:1042200092005258F91D0978081C03210140C90069
:10423000081CFF218140C94311403A689201FF20C8
:104240000240F81D0078051C03202840C000824071
:104250000A43C0339B001A512EE01A4CFB1D1B78F9
:104260001A1C0F231340083B9908164AFB1D1B78A4
:10427000181C0F230340083B9B0806339B00D318F0
:104280005B68FA1D1278101C03220240D200101C39
:10429000FF228240D2431A403B689B01FF2003402B
:1042A000F81D0078051C03202840C00083401A43F5
:1042B0008B1D9B00E3185A60BD4602B0B0BDC046DE
:1042C00000E100E000ED00E080B582B000AF786072
:1042D000081C111CFB1C021C1A70BB1C0A1C1A7047
:1042E000FB1C1878FB1C1B787A6806339B00D318DC
:1042F0005B68072293431A1CBB1C1B781A4379681E
:10430000831D9B00CB185A60BD4602B080BDC046DD
:1043100080B582B000AF78600A1CFB1C1A70FB1CD1
:104320001878FB1C1B787A6806339B00D3185B68EF
:1043300020221A437968831D9B00CB185A60BD4622
:1043400002B080BD80B582B000AF78600A1CFB1C53
:104350001A70FB1C1878FB1C1B787A6806339B00CC
:10436000D3185B6840221A437968831D9B00CB18E1
:104370005A60BD4602B080BD80B582B000AF7860A3
:1043800039607A6884235B00D2583B681A43111C59
:104390007A6884235B00D150BD4602B080BDC04620
:1043A00080B582B000AF786039607A6886235B00A0
:1043B000D2583B681A43111C7A6886235B00D1509F
:1043C000BD4602B080BDC04680B582B000AF786007
:1043D0000A1CFB1C1A707B681B6C0F2293431A1C6F
:1043E000FB1C1B781A437B681A64BD4602B080BD73
:1043F00080B582B000AF786039607A683B68101C85
:10440000191C0122FDF708FABD4602B080BDC04666
:1044100080B582B000AF78607B68181C0421FFF77C
:10442000D3FFBD4602B080BD80B500AF064B181C5F
:104430000A210022FDF766F9034B181C0121002216
:10444000FDF760F9BD4680BD0002044080B500AFB5
:10445000DC23074A101C0A211A1CFDF753F9DC2340
:10446000034A101C01211A1CFDF74CF9BD4680BD02
:104470000002044080B584B000AF80239B03FB6042
:104480000023BB60C023DB057B604F4A4F4B101CF1
:10449000191CFFF7ADFF4C4B181C00210522FFF73C
:1044A00013FF494B181C01210622FFF70DFF464B55
:1044B000181C03210022FFF707FF434B181C04219F
:1044C0000022FFF701FF404B181C05210022FFF7D7
:1044D000FBFE3D4B181C0021FFF71AFF3A4B181C3E
:1044E0000021FFF72FFF384B181C0121FFF710FFA9
:1044F000354B181C0121FFF725FF334B181C1021E9
:1045000004220123FDF724FE2F4B181C1021052245
:10451000FDF7BAFE2C4ABB68101C191CFFF72CFFD4
:10452000294B181C002104220F23FDF73FFE264BC8
:10453000181C10210322FDF7CBFE234B181C13215E
:104540000322FDF7C5FE204A7B68101C191CFFF7EB
:1045500027FF1D4B181C10210022FDF775FE1A4A7B
:10456000FB68101C191CFDF76FFB174B181CFFF79D
:104570004FFF174A174B101C0A211A1CFCF704FEA8
:10458000134A154B101C01211A1CFCF7FDFD0E20CF
:104590000321FFF72FFEE0231B010E20191CFDF75E
:1045A0006BF80E20FFF70CFE0C200321FFF722FE14
:1045B000C0231B010C20191CFDF75EF80C20FFF72F
:1045C000FFFDBD4604B080BD00020048F05300105E
:1045D00000020440E0530010E853001080B500AF23
:1045E000024B181CFFF784F9BD4680BD140600205D
:1045F00080B500AF024B181CFFF7CAFBBD4680BD5B
:104600001406002080B582B000AF78607B6819681E
:104610007B681A7B7B680433081C111C1A1CFCF78E
:10462000B3FD7B6819687B681A7B7B685B7B081C21
:10463000111C1A1CFDF7AEF80023181CBD4602B071
:1046400080BDC04680B500AF034B034A926E012186
:104650008A439A66BD4680BD0000014080B584B0A3
:1046600000AF78600F23FB1800221A700E23FB188E
:1046700000221A700D23FB1800221A700C23FB185D
:1046800000221A700B23FB1800221A707B681B781B
:1046900001225340DBB2002B1BD00E23FA180D234E
:1046A000FB1812781B781343DAB20C23FB181B7823
:1046B0001343D9B20F23FB180B22BA1812780A43FE
:1046C0001A700F23FB181B78002B02D17B68012284
:1046D0001A700F23FB181B78181CBD4604B080BD50
:1046E00090B585B000AF3B1C054A13CA13C31268CE
:1046F0001A603B1C181CFCF71FFEBD4605B090BDA0
:104700003454001090B583B000AFFB1D00221A7026
:10471000FC1D1C4B181CFFF7A1FF031C2370FB1D85
:104720001B78002B06D1FC1D174B181CFDF74CFF06
:10473000031C2370FB1D1B78002B06D1FC1D134BA3
:10474000181CFFF75FFF031C2370FB1D1B78002B59
:1047500006D1FC1D0E4B181CFDF736FF031C237001
:10476000FB1D1B78002B06D1FC1D0A4B181CFFF704
:1047700051F8031C2370FB1D1B78181CBD4603B0A9
:1047800090BDC0464806002090050020245400102B
:10479000DC0500201406002080B582B000AF7860F0
:1047A0000A1CFB1C1A707B6819687B685B68FA1C22
:1047B000127814329200D358DB68081C191CFDF7DC
:1047C00025FBBD4602B080BD80B582B000AF7860E9
:1047D0007B681B68181CFDF72FFBBD4602B080BD2F
:1047E00080B500AF092000F007F8042000F014F8AD
:1047F00000F022F8BD4680BD80B582B000AF021C3B
:10480000FB1D1A70FB1D1B783120191C00F01CF8D1
:10481000BD4602B080BDC04680B582B000AF021C6C
:10482000FB1D1A70FB1D1B783820191C00F00CF8BA
:10483000BD4602B080BDC04680B500AF2D20082126
:1048400000F002F8BD4680BD80B582B000AF021C0A
:10485000FB1D1A70BB1D0A1C1A70104BFA1D127832
:104860001A700E4BBA1D12785A700D4B181C00218D
:10487000FFF792FF0A49094A0A4B081C111C1A1C2F
:104880000223FDF75BFF064B181CFFF79DFF054B4E
:104890005B78181CBD4602B080BDC0464C060020A7
:1048A000DC0500206C06002090B583B002AF0A4BF7
:1048B000D0221A70094A084C012300930123019366
:1048C000101C0121EE22231CFEF7E4FF044B1B7891
:1048D000181CBD4601B090BDAC0600201406002097
:1048E0008C06002080B582B000AF78600A1CFB1CEB
:1048F0001A70FB1C1B78802252029A407B685A6017
:10490000BD4602B080BDC04680B582B000AF7860C1
:104910007B681B68181CFDF78FFABD4602B080BD8E
:1049200080B582B000AF78607B681A687B681B7BBB
:10493000101C191CFFF7D6FFBD4602B080BDC04653
:1049400090B583B000AFFC1CFFF7DCFE031C2370A6
:10495000FB1C1B78002B00D0FEE70F4B181CFFF749
:10496000DFFF0E4B181CFFF7CFFF0D4B181CFFF796
:10497000CBFF00F045F800F0E1FBFFF731FFFFF758
:1049800093FF00237B6002E07B6801337B607B68E0
:10499000044A9342F8DDF2E7245400109005002009
:1049A000DC050020FEFF000080B500AFBD4680BDE5
:1049B00080B500AFBD4680BD80B582B000AF7860E5
:1049C0000A1CFB1C1A707B6819687B685B68FA1C00
:1049D000127814329200D358DB68081C191CFDF7BA
:1049E00015FABD4602B080BD80B582B000AF7860D8
:1049F0007B681B68181CFDF71FFABD4602B080BD1E
:104A000080B582B000AF00237B6002E07B68013399
:104A10007B607B68194A9342F8DD4C2000F032F845
:104A200005200F2100F05CF80320002100F09EF823
:104A3000052000F0DFF8002000F01CF900F052F92A
:104A4000002000F077F93F20002100F0D9F90C4B4D
:104A50000020191C052200F013FA094B181C05212F
:104A600000F070FA00F0BCFA00F0E2FA00F008FB87
:104A700000F02EFBBD4602B080BDC046FEFF000028
:104A80004454001080B582B000AF021CFB1D1A70A8
:104A90000F4B25221A700E4BFA1D12785A700D4BCF
:104AA000181C0021FFF788FF0A49094A0A4B081C15
:104AB000111C1A1C0223FDF741FE064B181CFFF7C0
:104AC00093FF054B1A78054B1A70BD4602B080BDA6
:104AD000F006002090050020CC06002010070020E2
:104AE00080B582B000AF021CFB1D1A70BB1D0A1CF2
:104AF0001A701A4B24221A70FB1D1B780E2B04D837
:104B0000FB1D1B781B01D9B200E0F021BB1D1B78F7
:104B1000DAB20F2A00D90F23DBB2DBB20A1C13432F
:104B2000DBB2DAB20D4B5A700D4B181C0021FFF7A7
:104B300043FF0B49094A0B4B081C111C1A1C02238A
:104B4000FDF7FCFD064B181CFFF74EFF054B1A78CE
:104B5000054B1A70BD4602B080BDC046F00600206D
:104B600090050020CC0600201007002080B582B000
:104B700000AF021CFB1D1A70BB1D0A1C1A70194BDA
:104B800026221A70FB1D1B785B00DAB2BB1D1B7856
:104B9000191C20230B40DBB21343DAB2BB1D1B7878
:104BA000191C08230B40DBB21343DBB2DAB20D4B06
:104BB0005A700D4B181C0021FFF7FEFE0A49094AE6
:104BC0000A4B081C111C1A1C0223FDF7B7FD064BEB
:104BD000181CFFF709FF054B1A78054B1A70BD46E4
:104BE00002B080BDF006002090050020CC06002019
:104BF0001007002080B582B000AF021CFB1D1A70A8
:104C0000184B23221A70FB1D1B78032B0ED8FB1D9B
:104C10001B78052B0ADDFB1D1B78032B04D8FB1D1D
:104C20001B78023BDBB202E0012300E003230D4AC4
:104C300053700D4B181C0021FFF7BEFE0A49094AAC
:104C40000A4B081C111C1A1C0223FDF777FD064BAA
:104C5000181CFFF7C9FE054B1A78054B1A70BD46A4
:104C600002B080BDF006002090050020CC06002098
:104C70001007002080B582B000AF021CFB1D1A7027
:104C8000144B3D221A70FB1D1B78002B05D1FB1D18
:104C90001B78032B01DD002200E003220D4B5A702C
:104CA0000D4B181C0021FFF787FE0B49094A0B4BDF
:104CB000081C111C1A1C0223FDF740FD064B181C92
:104CC000FFF792FE054B1A78054B1A70BD4602B0ED
:104CD00080BDC046F006002090050020CC060020D4
:104CE0001007002080B500AF0E4B21221A700D4B2B
:104CF0003F225A700C4B181C0021FFF75DFE0A4939
:104D0000084A0A4B081C111C1A1C0223FDF716FD49
:104D1000054B181CFFF768FE044B1A78044B1A70F9
:104D2000BD4680BDF006002090050020CC06002086
:104D30001007002080B582B000AF021CFB1D1A7066
:104D4000154B22221A7000F02FF8031CD9B2FB1D5C
:104D50001B7801229A40131CDBB20A1C1343DBB2FE
:104D6000DAB20D4B5A700D4B181C0021FFF724FED0
:104D70000A49094A0A4B081C111C1A1C0223FDF798
:104D8000DDFC064B181CFFF72FFE054B1A78054B70
:104D90001A70BD4602B080BDF006002090050020CC
:104DA000CC0600201007002080B500AF104B022277
:104DB0001A700F4BFF225A700E4B181C0021FFF780
:104DC000FBFD0C490A4A0C4B081C111C1A1C02233F
:104DD000FDF7B4FC074B181CFFF706FE064B1A78CC
:104DE000064B1A70044B5B78181CBD4680BDC0464C
:104DF000F006002090050020CC06002010070020BF
:104E000080B582B000AF021CFB1D1A70BB1D0A1CCE
:104E10001A70BB1D1B78042B0AD8BB1D1B781133DD
:104E2000DBB2DBB21A1C20231343DBB2DAB200E0A0
:104E300036220F4B1A700E4BFA1D12785A700D4B1A
:104E4000181C0021FFF7B8FD0A49094A0A4B081C43
:104E5000111C1A1C0223FDF771FC064B181CFFF7EE
:104E6000C3FD054B1A78054B1A70BD4602B080BDD4
:104E7000F006002090050020CC060020100700203E
:104E800090B585B000AF3960111CFB1D021C1A7073
:104E9000BB1D0A1C1A70FB1D1B78042B0AD8FB1DB6
:104EA0001B780A33DBB2DBB21A1C20231343DBB2BC
:104EB000DAB200E02F221F4B1A700F23FB180022DA
:104EC0001A7012E00F23FB181B7801330F22BA1857
:104ED000127839688A181178164AD1540F23FB18B2
:104EE0001A780F23FB1801321A700F23FA18BB1D12
:104EF00012781B789A42E5D30F4B181C0021FFF75C
:104F00005BFDBB1D1B7801331C1C0B49094A0B4B75
:104F1000081C111C1A1C231CFDF710FC064B181C46
:104F2000FFF762FD054B1A78054B1A70BD4605B0B8
:104F300090BDC046F006002090050020CC06002061
:104F40001007002090B585B000AF78600A1CFB1CEC
:104F50001A701F4B30221A700F23FB1800221A7090
:104F600012E00F23FB181B7801330F22BA181278B6
:104F700079688A181178164AD1540F23FB181A78C9
:104F80000F23FB1801321A700F23FA18FB1C12783A
:104F90001B789A42E5D30F4B181C0021FFF70CFD3C
:104FA000FB1C1B7801331C1C0A49094A0A4B081CCC
:104FB000111C1A1C231CFDF7C1FB064B181CFFF724
:104FC00013FD054B1A78054B1A70BD4605B090BD10
:104FD000F006002090050020CC06002010070020DD
:104FE00080B500AF0E4B27221A700D4B7E225A70EF
:104FF0000C4B181C0021FFF7DFFC0A49084A0A4B3A
:10500000081C111C1A1C0223FDF798FB054B181CE9
:10501000FFF7EAFC044B1A78044B1A70BD4680BDBA
:10502000F006002090050020CC060020100700208C
:1050300080B500AF0E4BE1221A700D4BFF225A7063
:105040000C4B181C0021FFF7B7FC0A49084A0A4B11
:10505000081C111C1A1C0223FDF770FB054B181CC1
:10506000FFF7C2FC044B1A78044B1A70BD4680BD92
:10507000F006002090050020CC060020100700203C
:1050800080B500AF0E4BE2221A700D4BFF225A7012
:105090000C4B181C0021FFF78FFC0A49084A0A4BE9
:1050A000081C111C1A1C0223FDF748FB054B181C99
:1050B000FFF79AFC044B1A78044B1A70BD4680BD6A
:1050C000F006002090050020CC06002010070020EC
:1050D00080B582B000AF144B20221A70124BFE2212
:1050E0005A70124B181C0021FFF766FC0F490E4A3C
:1050F0000F4B081C111C1A1C0223FDF71FFB0B4B46
:10510000181CFFF771FC0A4B1A780A4B1A7000231F
:105110007B6002E07B6801337B607B68064A9342D8
:10512000F8DDBD4602B080BDF006002090050020ED
:10513000CC06002010070020FE3F000080B500AF25
:10514000114B20221A7000F027F8031C1A1C0123AF
:105150001343DAB20C4B5A700C4B181C0021FFF7AA
:105160002BFC0A49084A0A4B081C111C1A1C022372
:10517000FDF7E4FA054B181CFFF736FC044B1A78D0
:10518000044B1A70BD4680BDF0060020900500203B
:10519000CC0600201007002080B500AF124B002283
:1051A0001A70114BFF225A70104B181C0021FFF788
:1051B00003FC0E490C4A0E4B081C111C1A1C02233E
:1051C000FDF7BCFA094B181CFFF70EFC084B1A78C8
:1051D000084B1A70064B5A78074B1A70064B1B780F
:1051E000181CBD4680BDC046F0060020900500207A
:1051F000CC06002010070020EC0600200E4B70B5F6
:1052000000251E1C0D4CE41AA410A54204D0AB00CE
:10521000F35898470135F8E7FDF7A8F8084B002543
:105220001E1C084CE41AA410A54204D0AB00F3588D
:1052300098470135F8E770BD2006002020060020C1
:10524000200600202006002000030440000000008B
:1052500000000440000000000000044001000000C5
:10526000A00000000100000000000000000000009D
:1052700000040440010000009C0000000100000048
:105280000000000000000400600500202D31001027
:1052900048520010500500205052001028060020EF
:1052A00000000000000000000000000000000000FE
:1052B00058520010605200107052001000000000A0
:1052C00000000000000000000000000000000000DE
:1052D00000000000000000007852001000000000F4
:1052E00000000000000000000000000000000000BE
:1052F000000000000000000000000000B1490010A4
:105300000000000000060000000000000000000196
:1053100001010000000104400500000000010440FC
:105320000400000000000440070000009800000096
:105330000100000000000000000000000001044027
:1053400006000000980000000100000000000000BE
:1053500000000400AC050020C532001014530010FA
:105360009C0500201C53001038060020000000009F
:1053700000000000000000000000000024530010A6
:105380002C5300103C5300100000000000000000EF
:10539000000000000000000000000000000000000D
:1053A0000000000044530010000000000000000056
:1053B00000000000000000000000000000000000ED
:1053C00000000000000000000000000000000000DD
:1053D000040400000000004000000001010402007D
:1053E000DC00000001000000DC0000000100000003
:1053F000801A060000000000F053001075440010F1
:105400004D4400102944001000000000000000007E
:10541000A949001000000000000000000000040482
:105420000E0C00000000044080000000000001009D
:105430000200000000000100000030030000010035
:105440000000000030303030300000004966207924
:105450006F75207365652074686973206D6573735B
:10546000616765207468656E204F4B49000000003D
:105470002C48004700000000000000000000000071
:10548000000000000000000000000000000000001C
:1054900025480047000000000000000023480047A6
:1054A0002348004723480047234800472348004734
:1054B0002348004723480047234800472348004724
:1054C0002348004723480047234800472348004714
:1054D0002348004723480047234800472348004704
:1054E00023480047234800472348004723480047F4
:1054F00023480047234800472348004723480047E4
:1055000023480047234800472348004723480047D3
:1055100023480047234800472348004723480047C3
:10552000234800479D1000109D1000109D10001092
:105530009D1000109D1000109D1000109D10001077
:105540009D1000109D1000109D1000109D10001067
:105550009D1000109D100010B13200109D320010FF
:1055600071340010F14500105D340010DD4500106D
:105570009D1000109D1000109D1000109D10001037
:105580009D1000109D1000109D1000109D10001027
:105590009D1000109D1000109D1000109D10001017
:1055A0009D1000109D1000109D1000109D10001007
:0455B0009D1000103A
:1055B400880000000100000000000000000000005E
:1055C40000093D0000000400000000000800000085
:1055D40000000000000000000000000000000000C7
:1055E40000000000000000000000000000000100B6
:1055F40000420048885200106C050020880000001A
:10560400010000000000000000000000C0C62D00E2
:10561400000004000000000008000000000000007A
:105624000000000000000000000000000000000076
:10563400000000000007070000000100000000480F
:1056440054530010B80500200000000000000000C2
:105654000000000000000000000000000000000046
:10566400000000000000000000000000050300002E
:105674000000000000020048F8530010E805002074
:040000051000101DBA
:00000001FF
