:020000041000EA
:10100000500500201D100010000000009D10001071
:101010000018040000010000000000801149124A7D
:10102000124B00F018F8124880471249124A134B2D
:1010300000F011F81249134A134B00F00CF8134951
:10104000134A0020521A02DD043A8850FCDC114891
:101050008047114880479B1A03DD043BC858D05095
:10106000FBDC7047146500100C00002050010020CC
:10107000A1100010586600105005002084060020C2
:101080008C6700108406002084060020840600205F
:10109000B0070020E54E0010A94D0010FEE700004B
:1010A00080B500AF03F0C0FC03F00CFDBD4680BD71
:1010B00080B500AF2A4B1A68FF231B0213401A0A9F
:1010C000284B1A60274B1B68002B37D0244B1B681A
:1010D000FF221A40244B1A60214BDB690322134084
:1010E0001A02214B1B681A431F4B1A601C4BDA690A
:1010F00080239B0013400ED11A4B1B689A021A4B97
:101100001B68D3181948191C00F0D8FD031C1A01DC
:10111000174B1A6021E000F02FF8031C9901114BC6
:101120001B689A02104B1B68D318081C191C00F08E
:10113000C5FD031C1A010E4B1A600EE0084BDA695C
:1011400080239B00134003D1094B0A4A1A6004E034
:1011500000F012F8021C064B1A60BD4680BDC04666
:1011600000030140840600208806002000001BB711
:10117000FC3F0020006CDC0280B500AF014B181C66
:10118000BD4680BD002D310190B585B000AFF8603F
:101190007A600B23FB180A1C1A700B23FB181B78B0
:1011A0009B08DBB2181C0B23FB181B789B08DBB2D7
:1011B0001A1CFB6804329200D3580B22BA1812781A
:1011C00003210A40D200111CFC228A40D2431A405B
:1011D000111CFB68021D9200D150FB685B6F0B2253
:1011E000BA1812785200111C03228A40D2431A40C6
:1011F000FB685A670B23FB181B78DB08DBB2181C53
:101200000B23FB181B78DB08DBB21A1CFB681032BF
:101210009200D3580B22BA18127807210A40920084
:10122000111C04228A40D2431A40111CFB68021C84
:1012300010329200D1500B23FB181B78DB08DBB275
:10124000181C0B23FB181B78DB08DBB21A1CFB688D
:1012500010329200D2587B685B781C1C0B23FB1861
:101260001B7807210B409B009C40231C1A43111C38
:10127000FB68021C10329200D150FB68204A934256
:101280000BD1FB681B6E0B22BA181278012191401A
:101290000A1CD2431A40FB681A667B681B78DBB2D3
:1012A0005BB2002B07DA7B685A680B23FB181B78AC
:1012B0009A40FB685A600B23FB181B789B08DBB233
:1012C000181C0B23FB181B789B08DBB21A1CFB684D
:1012D00004329200D2587B681B781C1C0B23FB182D
:1012E0001B7803210B40DB009C40231C1A43111C7C
:1012F000FB68021D9200D150BD4605B090BDC046AE
:101300000002044080B500AF024BC3225A62BD46C2
:1013100080BDC0460000014080B500AF054BC02233
:101320005A62C046034B5B6A04221340FAD1BD46A1
:1013300080BDC0460000014080B586B000AF786037
:10134000FFF7EAFF7B689B79302B53D0FFF714FF40
:10135000021E494B9A4209D9484A48499023CB5A20
:101360009BB240210B4399B29023D152434A434947
:101370009023CB5A9BB29BB2191C322399430B1C6E
:1013800099B27B689B799BB20B439BB299B2902335
:10139000D1523B4B02229A623A4B3A4A52693A493D
:1013A0000A405A61394B7B6100E0C0467B69013BD2
:1013B0007B617B69002BF8D1324B324A5269C021E4
:1013C00089040A435A61C0462E4B5A6980235B0444
:1013D0001340F9D12E4B3B6100E0C0463B69013B15
:1013E0003B613B69002BF8D1254B1B6A022213405D
:1013F000CFD109E0214A21499023CB5A9BB2302119
:101400000B4399B29023D1521C4A7B68DB7999B285
:101410008C23D1527B68DB79002B09D11D4BFB60FB
:1014200000E0C046FB68013BFB60FB68002BF8D185
:10143000144B144AD26918490A40796889880A43CA
:10144000DA61104A0F4B1B68144919407B68DB684E
:1014500019437B689B680B431360FFF753FF7B685E
:101460009B781A1C7B681B88101C191C00F044F820
:10147000BD4606B080BDC046002D310100100140C0
:101480003800014000030140FFFFFFFD1A02000089
:101490007D0A0000A02E6300FFFDFFFFFFFFF0FFAD
:1014A00080B582B000AF7860FFF736FF084B084A7E
:1014B00011697A680A431A61C046054B1A6880238D
:1014C000DB051340F9D1FFF71DFFBD4602B080BD1B
:1014D0000003014080B582B000AF7860054B9B6887
:1014E0007A6813405A1E9341DBB2181CBD4602B005
:1014F00080BDC0460003014080B584B000AF786075
:101500003960FFF709FF274B1A68FF231B021340BE
:101510001B0AFB60234B234AD26903218A43111C17
:101520003A68120A0A43DA611E4B1E4A12681E49C3
:1015300011403A68FF2002400A431C490A431A60DE
:10154000C046184B1A688023DB051340F9D1FA68AE
:101550007B689A4206D8FA687B68101C191C00F058
:1015600053F805E0FA687B68101C191C00F022F89B
:101570000C4B0C4A12680E4911407A6812020A4359
:101580000A490A431A60C046064B1A688023DB05E5
:101590001340F9D1FFF7B6FEFFF78AFDBD4604B050
:1015A00080BDC0460003014000FF0FC00000F03FB7
:1015B000FF000FC080B582B000AF7860396014E0E2
:1015C0007B689B087B600D4B0C4A12680C491140EC
:1015D0007A6812020A430B490A431A60C046074B55
:1015E0001A688023DB051340F9D13B689A007B68B9
:1015F0009A42E5D3BD4602B080BDC046000301401B
:10160000FF000FC00000F03F80B582B000AF7860EF
:10161000396019E07B68002B01D101237B607B6876
:101620009B007B600C4B0C4A12680C4911407A6895
:1016300012020A430A490A431A60C046064B1A6856
:101640008023DB051340F9D17B689A003B689A42FE
:10165000E0D3BD4602B080BD00030140FF000FC0D3
:101660000000F03F80B500AF024B1B68181CBD4660
:1016700080BDC046FC3F002080B582B000AF021C98
:10168000FB1D1A703B1D0A1C1A803B1D3A1D128857
:1016900003210A401A80FB1D1B780F2B13D8184B0F
:1016A000174AD26EF91D09784900081C03218140B0
:1016B000C9430A40391D0988F81D0078400081405F
:1016C0000A43DA6618E0FB1DFA1D12780F210A4062
:1016D0001A700B4B0A4A126FF91D09784900081C51
:1016E00003218140C9430A40391D0988F81D00784B
:1016F000400081400A431A67BD4602B080BDC04623
:101700000000014090B583B000AF7860081C111C48
:10171000FB1C021C1A70BB1C0A1C1A70FB1C1B78D9
:101720009B08DBB2181CFB1C1B789B08DBB21A1C45
:101730007B6804329200D358FA1C127803210A40C5
:10174000D200111CFC228A40D2431A40111C7B6833
:10175000021D9200D150FB1C1B789B08DBB21C1CA5
:10176000FB1C1B789B08DBB21A1C7B6804329200BE
:10177000D258BB1C1B78F91C097803200140C90012
:101780008B401A43111C7B68221D9200D150BD462C
:1017900003B090BD80B582B000AF7860081C111C0A
:1017A000FB1C021C1A70BB1C0A1C1A707B685B6F46
:1017B000FA1C12785200111C03228A40D2431A40AC
:1017C0007B685A677B685A6FBB1C1B78F91C0978C9
:1017D00049008B401A437B685A67BD4602B080BD02
:1017E00080B582B000AF78607B689B6BDBB27F22F4
:1017F0009343DBB2181CBD4602B080BD80B582B0F9
:1018000000AF786039607B68DA6C3B681A437B68AC
:10181000DA64BD4602B080BD80B584B000AFF86028
:10182000B960FB1D1A70FB68181C00F08FFBFB6889
:10183000124A5A63BB68DB88FA68101C191C00F056
:101840001FF8FB1D1B78002B09D0BB681A68BB680A
:101850001B79F968081C111C1A1C00F043F8FB687E
:10186000A022D2009A63FB6801225242DA64FB682C
:1018700000221A64BD4604B080BDC04603033F0782
:1018800080B582B000AF78600A1CBB1C1A80BB1CFC
:101890001A88F823DB011A40F023DB019A4213D1A6
:1018A0007B68DB6B1B0C1A04BB1C1B88FF210B40E5
:1018B0001A43BB1C1B885B00191CFE231B020B4038
:1018C0001A437B68DA6309E07B68DB6B1B0C1A0444
:1018D000BB1C1B881B021A437B68DA63BD4602B03F
:1018E00080BDC04690B587B000AFF860B960FB1D01
:1018F0001A70BB682B4A934221D8FB68DB6B2A4ADB
:101900001A40FB68DA63FB1D1B78002B0BD0BB6809
:101910001722BC18FA68101C191C0A2200F0CCFB14
:10192000031C237036E01723FC18FA68BB68101CF0
:10193000191C0A2200F046FB031C23702AE0BB6836
:101940001A4A934222D8FB68DB6B802292021A4328
:10195000FB68DA63FB1D1B78002B0BD0BB681722DA
:10196000BC18FA68101C191C192200F0A5FB031CF6
:1019700023700FE01723FC18FA68BB68101C191CB1
:10198000192200F01FFB031C237003E01723FB1830
:1019900001221A701723FB181B78181CBD4607B0CC
:1019A00090BDC046A0860100FFFFFDFF801A060023
:1019B00080B584B000AF7860081C111CBB1C021CF1
:1019C0001A807B1C0A1C1A70BB1C1B888022D20048
:1019D00013439BB2FB607B1C1B78012B03D1FB687C
:1019E00001221343FB607A6884235B00D258E02312
:1019F000DB04134013D1C0467B68181CFFF7F0FED0
:101A0000031E802BF8D07A6880239B01101C191CC0
:101A1000FFF7F4FE7B688021FA685A5004E07A6888
:101A2000C0235B00F968D150BD4604B080BDC046FC
:101A300080B584B000AF7860081C111CBB1C021C70
:101A40001A807B1C0A1C1A70BB1C1B88A022D200A7
:101A500013439BB2FB607B1C1B78012B03D1FB68FB
:101A600001221343FB607A6884235B00D258E02391
:101A7000DB04134013D1C0467B68181CFFF7B0FE8F
:101A8000031E802BF8D07A6880239B01101C191C40
:101A9000FFF7B4FE7B688021FA685A5004E07A6848
:101AA000C0235B00F968D150BD4604B080BDC0467C
:101AB00080B582B000AF78607A6884235B00D2582A
:101AC000E023DB04134014D1C0467B68181CFFF7E9
:101AD00087FE031E802BF8D07A6880239B01101CA0
:101AE000191CFFF78BFE7B688021C022D2005A5060
:101AF00005E07A68C0235B00C021C900D150BD4613
:101B000002B080BD80B582B000AF78600A1CFB1CBB
:101B10001A707A6884235B00D258E023DB041340F8
:101B200014D1C0467B68181CFFF75AFE031E802B99
:101B3000F8D07A6880239B01101C191CFFF75EFE09
:101B4000FB1C1A787B6880215A5005E0FB1C197831
:101B50007A68C0235B00D150BD4602B080BDC0464C
:101B600080B582B000AF78607A6884235B00D25879
:101B7000E023DB04134014D1C0467B68181CFFF738
:101B80002FFE031E802BF8D07A6880239B01101C47
:101B9000191CFFF733FE7B688021802292005A5087
:101BA00005E07A68C0235B0080218900D150BD46E2
:101BB00002B080BD80B582B000AF78607A688423BF
:101BC0005B00D258E023DB04134014D1C0467B688D
:101BD000181CFFF705FE031E802BF8D07A688023BF
:101BE0009B01101C191CFFF709FE7B688021C02295
:101BF00092005A5005E07A68C0235B00C02189003A
:101C0000D150BD4602B080BD80B584B000AF7860D1
:101C10007A6886235B00D258E023DB04134005D1A9
:101C20007B685A6D0F23FB181A7006E07A688E23C2
:101C30005B00D2580F23FB181A700F23FB181B7878
:101C4000181CBD4604B080BD80B582B000AF78607E
:101C500039607B681A6C3968FE235B020B401A43BB
:101C60007B681A647B68DA6B3B6804490B401A4353
:101C70007B68DA63BD4602B080BDC0460000FC410F
:101C800080B582B000AF786039607B681B6C3968C2
:101C9000FE2252020A40D2431A407B681A647B68D3
:101CA000DB6B3A6804490A40D2431A407B68DA6326
:101CB000BD4602B080BDC0460000FC4180B588B082
:101CC00000AF78603960EFF310837B617B693B6123
:101CD00072B63B69FB610C4B04225A630A4B7A686B
:101CE0001A62094B3A685A62074B9B6ABB61FB69EF
:101CF000FB60FB68BB60BB6883F31088BB69181C82
:101D0000BD4608B080BDC0460000034080B588B025
:101D100000AF78603960EFF310837B617B693B61D2
:101D200072B63B69FB610C4B00225A630A4B7A681E
:101D30001A62094B3A685A62074B9B6ABB61FB699E
:101D4000FB60FB68BB60BB6883F31088BB69181C31
:101D5000BD4608B080BDC04600000340F0B58DB060
:101D600000AF78603960EFF310827A617A693A6186
:101D700072B63A69FA62154A04215163134A7968C6
:101D80001162124A39685162104AD26A3A620022DC
:101D90007A620E4A926ABA610022FA61FA6AFA60BD
:101DA000FA68BA60BA6882F310883A6A14000022AE
:101DB000131CBA691A43151CFA692243161C2B1C02
:101DC000341C181C211CBD460DB0F0BD00000340A2
:101DD00080B582B000AF786039607B68DA6C3B68B0
:101DE0001A437B68DA64BD4602B080BD80B584B01A
:101DF00000AFF860B960FB1D1A70FB68181C00F09A
:101E0000A5F8BB685B79002B19D1FB1D1B78002B53
:101E100015D0BB681B79002B09D0BB681B681A1C46
:101E2000FB68181C111C022200F046F907E0BB6891
:101E30001B68FA68101C191C022200F0C3F8FB682A
:101E40000E4A5A63FB68A222D2009A63BB685B7990
:101E5000002B07D1BB689B790B221343DBB21A1C02
:101E6000FB68DA63FB6801225242DA64BB681B89B3
:101E70001A1CFB681A64BD4604B080BD02013F070E
:101E800080B582B000AF786039607B68DB6B064A52
:101E90001A407B68DA637B68DA6B3B681A437B68BD
:101EA000DA63BD4602B080BDFFFF00FF80B582B09F
:101EB00000AF78607B68181C0121FFF789FF7B6801
:101EC000DB6B034A1A407B68DA63BD4602B080BD13
:101ED000FFFF00FF80B584B000AF78607A6886238A
:101EE0005B00D258E023DB04134005D17B685A6DB8
:101EF0000E23FB181A8006E07A688E235B00D25806
:101F00000E23FB181A800E23FB181B88181CBD46D5
:101F100004B080BD80B582B000AF786039607B6866
:101F20001B6C3968FE2252020A40D2431A407B6879
:101F30001A647B68DB6B3A6852031204120CD243BA
:101F40001A407B68DA63BD4602B080BD80B582B0BE
:101F500000AF78607A689023DB059A4203D07B68F3
:101F6000134A934204D1134B181C00F00FFA0BE0F4
:101F70007B68114A934203D07B68104A934203D195
:101F80000F4B181C00F002FA7B680322DA60C0468F
:101F90007B68DB6801221340FAD07B681B6C0F2240
:101FA00093431A1C7B681A64BD4602B080BDC046CC
:101FB0000002004808000048004000480042004875
:101FC0000840004880B58EB000AFF860B9607A6014
:101FD000BB68632B60D97B68002B5DD0FFF742FBA9
:101FE000031C181C6421FFF769FE031C3B62BB68DD
:101FF000181C6421FFF762FE031CBB608023DB001A
:10200000FB620123BB622A4B7B628023DB003B63C4
:1020100025E03B6A3A6B5A43111CBB687A6853430C
:10202000081C191CFFF74AFE031CFB61FB699B0A95
:10203000BB61FB699B059B0D7B61BA698023DB005B
:102040009A4209D87A697B6A9A4205D27B697B6297
:10205000BB69BB623B6BFB623B6B013B3B633B6B16
:10206000002BD6D1FB6A013B802212021A43FB6887
:102070001A61FB685B690F4A1A407B68013B9B024F
:102080001A43BB6A013B1B041A43FB685A6137239E
:10209000FB1800221A7003E03723FB1801221A7084
:1020A0003723FB181B78181CBD460EB080BDC046F8
:1020B000FF030000EF8000FC80B58CB000AFF8603B
:1020C000B9607A60FFF7CEFA031C3B62BB687A689E
:1020D0005343FB610123FB623A6AFB699A4262DD6A
:1020E000386AF969FFF712FE031CBB620FE0FB6A56
:1020F0000133FB62BB687A6853431A1CFB6A534383
:10210000FB61386AF969FFF701FE031CBB62BB6A19
:102110002A4A9342EBD8396A7B68BA6A5343FA6A0F
:102120005343081C191CFFF7C9FD031CBB61396A26
:10213000BB6A01337A685343FA6A5343081C191C7B
:10214000FFF7BCFD031C7B61BA687B69D31AD91702
:102150005A184A40B968BB69CB1AD9175B184B406B
:102160009A4202DABB6A0133BB62BB6A8022D200A8
:10217000D31ABB62BB6A8022D2011A43FB681A6180
:10218000FB685B690E4A1A407B68013B9B021A435D
:10219000FB6A013B1B041A43FB685A612723FB18A7
:1021A00000221A7003E02723FB1801221A7027234C
:1021B000FB181B78181CBD460CB080BDFE03000048
:1021C000EF8000FC80B584B000AFF860B9603B6080
:1021D000FB1D1A70FA6884235B00D3580E4A134023
:1021E000191CFA6884235B00D150FA6884235B00D1
:1021F000D3580A4A1A403B681902BB681943FB1DB1
:102200001B781B060B431A43111CFA6884235B00DE
:10221000D150BD4604B080BDFFFFFFF8C0C0FFF83D
:1022200080B584B000AFF860B9603B60FB1D1A70E8
:10223000FA6886235B00D358104A1340191CFA68C9
:1022400086235B00D150FA6886235B00D3580C4A82
:102250001A403B681902BB681943FB1D1B781B061B
:102260000B431343802252051A43111CFA6886233C
:102270005B00D150BD4604B080BDC046FFFFFFF8F3
:10228000C0C0FFEF80B584B000AFF8607A600B2368
:10229000FB180A1C1A70FA6886235B00D358064A9A
:1022A0001A407B681B021A43111CFA6886235B00E4
:1022B000D150BD4604B080BDFFC0FFFF80B584B0E3
:1022C00000AFF8607A600B23FB180A1C1A70FB68D9
:1022D0009B690B22BA181278072191400A1CD2433D
:1022E0001A400B23FB181B78796899400B1C1A4382
:1022F000FB689A61BD4604B080BDC04680B584B01D
:1023000000AFF8607A600B23FB180A1C1A70FA6899
:1023100084235B00D3580B22BA181278072191400E
:102320000A1CD2431A400B23FB181B78796899408A
:102330000B1C1A43111CFA6884235B00D150BD4664
:1023400004B080BD80B584B000AFF8607A600B2324
:10235000FB180A1C1A70FA6886235B00D3580B22FC
:10236000BA181278072191400A1CD2431A400B2355
:10237000FB181B78796899400B1C1A43111CFA68EA
:1023800086235B00D150BD4604B080BD80B582B0CD
:1023900000AF78607B68104A934209D10820FFF7AC
:1023A0007FF8C0460820FFF795F8031EFAD110E029
:1023B0007B680A4A93420CD18023DB02181CFFF78A
:1023C0006FF8C0468023DB02181CFFF783F8031E5A
:1023D000F8D1BD4602B080BD080000480840004862
:1023E00080B584B000AF7860144B1B68002B02D11D
:1023F000124B134A1A60114B1B68FB607B68033356
:10240000032293437B600D4B1A687B68D2180D4BF7
:102410009A4207D2094B1A687B68D218074B1A6098
:10242000FB6806E002F058FD031C0C221A60012331
:102430005B42181CBD4604B080BDC0468C0600201F
:10244000B0070020FC3F002080B500AFBD4680BD36
:1024500080B584B000AFF8607A600A23FB180A1CCC
:102460001A800A23FB181988FB687A6820329200C8
:10247000D150BD4604B080BD80B582B000AF786059
:1024800039607B681B6C3A68D2431A407B681A64D7
:10249000BD4602B080BDC04680B582B000AF786056
:1024A0007B689B6BDBB27F229343DBB2181CBD467B
:1024B00002B080BD80B582B000AF78607B681A6DD5
:1024C000C023DB011340181CBD4602B080BDC046CE
:1024D00080B582B000AF786039607A6884235B0091
:1024E000D3583A68D2431A40111C7A6884235B009F
:1024F000D150BD4602B080BD80B584B000AFF86059
:102500007A600A23FB180A1C1A800A23FB18198810
:10251000FB687A6860329200D150BD4604B080BD3D
:1025200080B582B000AF78607A688A235B00D258A9
:1025300080235B0113405A1E9341DBB2181CBD4639
:1025400002B080BD80B582B000AF78607A688A231F
:102550005B00D25880231B0113405A1E9341DBB20B
:10256000181CBD4602B080BD80B582B000AF786057
:1025700039607A6886235B00D3583A68D2431A40A0
:10258000111C7A6886235B00D150BD4602B080BD25
:1025900080B582B000AF78607A688A235B00D35838
:1025A000082213405A1E9341DBB2181CBD4602B0EC
:1025B00080BDC04690B585B000AF78607B685B6831
:1025C0005B680F22BC189847031C23700F23FB186D
:1025D0001B78181CBD4605B090BDC04690B587B0AD
:1025E00000AF786001233B617B689B68FB607B6880
:1025F0009B681B68082B01D902233B61FB689A6822
:10260000FB685B689A4200D39BE01623FB1800220C
:102610001A807B685B687C229B5C002B53D045E072
:10262000FB689A68FB685B689A423DD2FB6821228E
:102630009B5CDBB2002B0CD07B681A68FB681B7FAD
:10264000DBB21C1C604B101C191C221CFFF754FF32
:1026500023E03B69022B09D1FB689A69FB689B6800
:10266000D2181623FB1812881A8008E0FB689A69B2
:10267000FB689B68D3181A781623FB181A807B68AE
:102680001A68FB681B7FDBB21C1C1623FB181B8817
:10269000101C191C221CFFF72FFFFB689A683B696E
:1026A000D218FB689A6001E0C04689E07B681B682D
:1026B000181CFFF735FF031C1A1C01235340DBB223
:1026C000002BADD17CE0FB6821229B5CDBB2002BB0
:1026D0000CD07B681A68FB681B7FDBB21C1C3A4B72
:1026E000101C191C221CFFF7B3FE23E03B69022BD0
:1026F00009D1FB689A69FB689B68D2181623FB18FE
:1027000012881A8008E0FB689A69FB689B68D318F6
:102710001A781623FB181A807B681A68FB681B7FDF
:10272000DBB21C1C1623FB181B88101C191C221C56
:10273000FFF78EFEFB689A683B69D218FB689A60C7
:102740003EE07B681B68181CFFF7FCFE031E37D0B9
:102750007B685B687C229B5C002B08D07B681A68D6
:102760008023DB05101C191CFFF7B2FE07E07B6815
:102770001A6880239B01101C191CFFF77DFEC046C0
:102780007B681B68181CFFF787FE031E802BF7D0A1
:10279000FB68202200219954FB6800229A617B6823
:1027A0005B681B6F002B0BD0FB68DB7FDBB2012269
:1027B0005340DBB2002B03D07B685B681B6F9847EC
:1027C000BD4607B090BDC046FFFF000090B587B082
:1027D00000AF786001237B617B689B683B610E23BF
:1027E000FB1800221A807B689B681B68082B01D9A4
:1027F00002237B617B685B687D229B5C002B20D081
:102800007A687B69101C191C00F0C4F83B69DA680F
:102810003B691B69D21A7B685B687D215B5C013B6D
:10282000012199400B1C9A4200D9B0E03B69DA685B
:102830003B691B69D31A7A68101C191C00F016F941
:10284000A5E07B681B68181CFFF734FE021C802380
:102850009B0113402ED03B691A693B69DB689A42A1
:1028600028D27B681B680E22BC18181CFFF732FBAD
:10287000031C23803B695A693B691B69D3180E22EC
:10288000BA181288D2B21A707B69022B0CD13B693C
:102890005A693B691B690133D3180E22BA18128892
:1028A000120A92B2D2B21A703B691A697B69D218C5
:1028B0003B691A617B681B68181CFFF7FBFD021C53
:1028C0008023DB0113402ED03B691A693B69DB682A
:1028D0009A4228D27B681B680E22BC18181CFFF78E
:1028E000F9FA031C23803B695A693B691B69D318B9
:1028F0000E22BA181288D2B21A707B69022B0CD140
:102900003B695A693B691B690133D3180E22BA1817
:102910001288120A92B2D2B21A703B691A697B69A4
:10292000D2183B691A613B691A693B69DB689A42B4
:102930002DD17B685B687D229B5C002B08D07B6877
:102940001A68C023DB05101C191CFFF70DFE07E0F9
:102950007B681A68C0231B02101C191CFFF7DAFAE7
:102960003B690022DA773B692122002199543B69B7
:102970002222012199543B6900225A617B685B68DD
:102980005B6F002B03D07B685B685B6F9847BD462D
:1029900007B090BD90B585B000AF786039607B68B6
:1029A0009B68FB600A23FB1800221A804EE0FB683C
:1029B0001A69FB68DB689A4228D27B681B680A2286
:1029C000BC18181CFFF786FA031C2380FB685A69A1
:1029D000FB681B69D3180A22BA181288D2B21A707F
:1029E0003B68022B0CD1FB685A69FB681B690133F9
:1029F000D3180A22BA181288120A92B2D2B21A70E6
:102A0000FB681A693B68D218FB681A61FB681A698F
:102A1000FB68DB689A4219D1FB680022DA77FB6811
:102A20002122002199547B681A68C023DB05101C01
:102A3000191CFFF799FD7B685B685B6F002B04D066
:102A40007B685B685B6F98470CE00BE07B681B68FA
:102A5000181CFFF79DFD031C1A1C01235340DBB219
:102A6000002BA4D1BD4605B090BDC04680B584B052
:102A700000AF786039607B685B687D229B5C002BCF
:102A800029D03B68002B26D07B685B687D229B5C4D
:102A9000013B01229A40131CBB607B689B681B684A
:102AA000082B02D93B685B083B603A68BB689A42D6
:102AB00003D83B68013BFB6001E0BB68FB607B68BF
:102AC00019687B685B687D229A5CFB68081C111C96
:102AD0001A1CFFF7D7FBBD4604B080BD80B582B09D
:102AE00000AF021CFB1D1A70FB1D1B787F2B09D841
:102AF000064BFA1D1278111C1F220A400121914039
:102B00000A1C1A60BD4602B080BDC04600E100E06C
:102B1000B0B582B000AF021C3960FB1D1A70FB1DFE
:102B20001B787F2B27D82D4CFB1D1B785BB29B0895
:102B30002A49FA1D127852B29208C03292005258B5
:102B4000F91D0978081C03210140C900081CFF2158
:102B50008140C94311403A689201FF200240F81DAC
:102B60000078051C03202840C00082400A43C0337F
:102B70009B001A512EE01A4CFB1D1B781A1C0F23C8
:102B80001340083B9908164AFB1D1B78181C0F239D
:102B90000340083B9B0806339B00D3185B68FA1D73
:102BA0001278101C03220240D200101CFF22824027
:102BB000D2431A403B689B01FF200340F81D007878
:102BC000051C03202840C00083401A438B1D9B0036
:102BD000E3185A60BD4602B0B0BDC04600E100E057
:102BE00000ED00E080B582B000AF7860081C111CD9
:102BF000FB1C021C1A70BB1C0A1C1A70FB1C1878E8
:102C0000FB1C1B787A6806339B00D3185B6807228D
:102C100093431A1CBB1C1B781A437968831D9B00C5
:102C2000CB185A60BD4602B080BDC04680B582B0A8
:102C300000AF78600A1CFB1C1A707B685B6B064A4D
:102C40001A40FB1C1B78013B1B061A437B685A6326
:102C5000BD4602B080BDC046FFFFFFF080B582B028
:102C600000AF78600A1CFB1C1A707B685B6B064A1D
:102C70001A40FB1C1B78013B1B041A437B685A63F8
:102C8000BD4602B080BDC046FFFFC0FF80B584B026
:102C900000AFF860B9607A60FB685B69054A1A406A
:102CA000BB681A437B681A43FB685A61BD4604B08F
:102CB00080BDC046FFFFFF2F80B582B000AF7860B7
:102CC0000A1CFB1C1A707B681B6C0F2293431A1C96
:102CD000FB1C1B781A437B681A64BD4602B080BD9A
:102CE00080B582B000AF786039607A683B68101CAC
:102CF000191C0122FFF77AF8BD4602B080BDC0461C
:102D000080B582B000AF78607B68181C0121FFF7A6
:102D1000D3FFBD4602B080BD80B582B000AF786001
:102D20007B685B6B01221A437B685A63BD4602B025
:102D300080BDC04680B582B000AF786039607B68E6
:102D40005B69074A1A403B68013B9B0213438022A0
:102D500052001A437B685A61BD4602B080BDC0462E
:102D6000FF80FFFF80B584B000AFF860B9607A6083
:102D7000F968BA687B68081C111C1A1CFFF786FFEB
:102D8000BD4604B080BDC04680B582B000AF78605B
:102D90000A1CFB1C1A707A68FB1C1B78101C191C7F
:102DA000FFF744FFBD4602B080BDC04680B582B08B
:102DB00000AF78600A1CFB1C1A707A68FB1C1B7839
:102DC000101C191CFFF74AFFBD4602B080BDC0466B
:102DD00080B582B000AF7860081C111CFB1C021C7F
:102DE0001A70BB1C0A1C1A70FB1C1878FB1C1B7881
:102DF0007A6806339B00D3185B68502293431022F5
:102E00001A437968831D9B00CB185A607968FB1CB4
:102E10001A78BB1C1B78081C111C1A1CFFF7E2FE59
:102E2000BD4602B080BDC04680B582B000AFFB1D7C
:102E300000221A704D4A4E4B101C191CFFF750FF10
:102E40004A4B181CFFF768FF484B181C0821FFF776
:102E50009BFF464B181C4021FFF7A8FF434B181C53
:102E600000210022FFF77EFF404B181C0121FFF7D5
:102E700061FF404A404B101C00211A1CFEF784F9E8
:102E80003A4B181C00210022FFF7A2FF374B181CF9
:102E900003210022FFF79CFF344B181C0421002261
:102EA000FFF796FF314B181C05210022FFF790FF1A
:102EB0002E4B181CFFF724FF304A314B101C002109
:102EC0001A1CFEF761F92B4A2E4B101C01211A1C0B
:102ED000FEF75AF92C4A2D4B101C01211A1CFEF743
:102EE00053F9224A8023DB02101C191CFEF7C8FF8D
:102EF0001E4B181C04210122FFF7E0F91B4B181C84
:102F000010210122FFF7DAF9184B181C00210622C4
:102F10000023FFF785F9154B181C10210022FFF73D
:102F200011FA124B181C13210022FFF70BFA0A208A
:102F30000321FFF7EDFD164B0A20191CFEF79CFB41
:102F40000A20FFF7CBFD09200221FFF7E1FD114B1D
:102F50000920191CFEF790FB0920FFF7BFFDFB1DA0
:102F60001B78181CBD4602B080BDC0460042004818
:102F7000600500200000044090060020000304408B
:102F800050050020586100100004044070610010DA
:102F9000010A00000109000080B500AF024B181CB7
:102FA000FFF71CFBBD4680BD9005002080B500AF3B
:102FB000024B181CFFF70AFCBD4680BD900500209F
:102FC00080B582B000AFFB1D00221A709023DA0595
:102FD0005A4B101C191CFFF783FE9023DB05181CAD
:102FE000FFF79AFE9023DB05181C0821FFF7CCFEA3
:102FF0009023DB05181C4021FFF7D8FE9023DA054B
:103000008023DB05101C191C0022FFF7ABFE902368
:10301000DB05181C0121FFF78DFE494A494B101CA6
:1030200004211A1CFEF7B0F89023DB05181C0021C0
:103030000622FFF7CDFE9023DB05181C0321052295
:10304000FFF7C6FE9023DB05181C04210022FFF7C2
:10305000BFFE9023DB05181C05210422FFF7B8FEF4
:103060009023DB05181CFFF74BFE354A364B101C2E
:1030700005211A1CFEF788F8344A354B101C07212D
:103080001A1CFEF781F82E4A324B101C06211A1C1E
:10309000FEF77AF89023DA058023DB02101C191C56
:1030A000FEF7EEFE9023DB05181C10210022FFF72F
:1030B00005F99023DB05181C202104220123FFF7CA
:1030C00081F89023DB05181C10210422FFF716F964
:1030D0009023DB05181C102104220023FFF7A0F821
:1030E0009023DB05181C10210222FFF72BF99023F7
:1030F000DB05181C13210222FFF724F90D20032100
:10310000FFF706FDD0231B010D20191CFEF7B4FAB2
:103110000D20FFF7E3FC0B200221FFF7F9FCB023A1
:103120001B010B20191CFEF7A7FA0B20FFF7D6FC9A
:10313000FB1D1B78181CBD4602B080BDAC050020ED
:1031400000010440A00600209C050020000004406F
:10315000246200103C62001080B500AF024B181CC6
:10316000FFF73CFABD4680BDDC05002080B500AF0E
:10317000024B181CFFF72AFBBD4680BDDC05002072
:1031800080B582B000AF021CFB1D1A70FB1D1B78BE
:103190007F2B0AD80649FB1D1B781A1C1F231340DE
:1031A00001229A40C0235B00CA50BD4602B080BDD8
:1031B00000E100E080B582B000AF786039607B68E4
:1031C0001A6C3B681A437B681A64BD4602B080BD26
:1031D00080B582B000AF786039607B681B6C3A685C
:1031E000D2431A407B681A64BD4602B080BDC04617
:1031F00080B582B000AF78607B689B6BDBB27F22CA
:103200009343DBB2181CBD4602B080BD80B582B0CE
:1032100000AF786039603B68802252029A407B6838
:103220009A66BD4602B080BD80B582B000AF7860BE
:1032300039607A6884235B00D2583B681A43111CBA
:103240007A6884235B00D150BD4602B080BDC04681
:1032500080B582B000AF786039607A6884235B0003
:10326000D3583A68D2431A40111C7A6884235B0011
:10327000D150BD4602B080BD80B582B000AF78604D
:103280007A688C235B0080210902D150BD4602B0D0
:1032900080BDC04680B582B000AF78607A688A236E
:1032A0005B00D25880235B0113405A1E9341DBB26E
:1032B000181CBD4602B080BD80B582B000AF7860FA
:1032C0007A688A235B00D25880231B0113405A1E60
:1032D0009341DBB2181CBD4602B080BD80B582B000
:1032E00000AF786039607A6886235B00D2583B680B
:1032F0001A43111C7A6886235B00D150BD4602B088
:1033000080BDC04680B582B000AF786039607A6811
:1033100086235B00D3583A68D2431A40111C7A685E
:1033200086235B00D150BD4602B080BD80B582B01F
:1033300000AF78607A688C235B008021C901D1508E
:10334000BD4602B080BDC04680B582B000AF786097
:103350007A688A235B00D358082213405A1E93418F
:10336000DBB2181CBD4602B080BDC04680B582B03D
:1033700000AF78600A1CFB1C1A70FB1C1B787A6873
:10338000101C10211A1CFEF799FFBD4602B080BD2B
:1033900080B582B000AF78607B689B6C181CBD461E
:1033A00002B080BD80B582B000AF786039607B68C4
:1033B000DA6C3B681A437B68DA64BD4602B080BDB4
:1033C00080B584B000AFF860B9607A60FB681968B6
:1033D000BB68DAB27B68081C111C1A1CFEF752FF8E
:1033E000BD4604B080BDC04680B582B000AF7860F5
:1033F0007B681B68181CFFF74DFF031C181CBD469B
:1034000002B080BD80B582B000AF78607B681B6879
:10341000181CFFF799FF031C181CBD4602B080BDA5
:1034200080B582B000AF78607B681B68181CFEF71F
:10343000EBFB031C181CBD4602B080BD80B582B0FA
:1034400000AF78600A1CFB1C1A707B681A68FB1CB2
:103450001B78101C191CFEF755FBBD4602B080BD41
:1034600080B582B000AF786039607B681A683B68CD
:10347000101C191CFEF7E8FBBD4602B080BDC0461B
:1034800080B582B000AF786039607B681A683B68AD
:10349000101C191CFEF7F4FBBD4602B080BDC046EF
:1034A00080B582B000AF78607B681B68181CFEF79F
:1034B00057FBBD4602B080BD80B582B000AF7860DA
:1034C0007B681B68181CFEF775FBBD4602B080BD0B
:1034D00080B582B000AF78607B681B68181C102133
:1034E000FFF760FF7B681B68181CFEF7E1FABD461A
:1034F00002B080BD80B584B000AFF860B960FB1D3C
:103500001A70FB681B68181C0421FFF74BFFFB684F
:103510001968BB689AB2FB1D1B78081C111C1A1C89
:10352000FEF746FABD4604B080BDC04680B584B003
:1035300000AFF860B960FB1D1A70FB681B68181CAF
:103540000821FFF72FFFFB681968BB689AB2FB1DC3
:103550001B78081C111C1A1CFEF76AFABD4604B041
:1035600080BDC04680B584B000AF786039607A68AD
:103570003B689A4202D27B68FB6001E03B68FB60DB
:10358000FB68181CBD4604B080BDC04680B584B041
:1035900000AF78607B68002B08D07B685B685B6855
:1035A00098470F23FB1800221A7003E00F23FB1823
:1035B00001221A700F23FB181B78181CBD4604B09B
:1035C00080BDC04680B584B000AF786039607B684C
:1035D0001B68181CFFF7DCFE031CFB60FB683A68E5
:1035E0001340181CBD4604B080BDC04680B582B0F3
:1035F00000AF786039607B681A683B68101C191C42
:10360000FFF7D0FEBD4602B080BDC046B0B588B061
:1036100002AFF8607A603B600B23FB180A1C1A703B
:103620001723FB1802221A70FB685B6824229B5C3C
:10363000002B12D11723FC18F8680B23FB181978FC
:103640007A683D68BB6A00932C23FB181B780193B2
:103650002B1C00F0AFFB031C23701723FB181B78F7
:10366000181CBD4606B0B0BD80B584B000AF786010
:103670007B689B68BB600F23FB1800221A707A6876
:10368000B1235B00101C191CFFF79CFF031E14D014
:103690007B681A688023DB05101C191CFFF7D8FD16
:1036A0007B681A6880239B01101C191CFFF790FD92
:1036B0007B68181C00F08CFE1FE1BB689B69002B27
:1036C00000D08CE07B685B6826229B5C002B63D07B
:1036D000BB68DA68BB689B689A4234D27A688023F8
:1036E000DB05101C191CFFF7CBFE7B681A688023D2
:1036F000DB05101C191CFFF797FD18E0BB68DA68A2
:10370000BB689B689A4210D2BB681A68BB68DB68CA
:10371000D3181B787A68101C191CFFF78FFEBB6842
:10372000DB685A1CBB68DA6001E0C046E5E07B68F4
:10373000181CFFF759FE031C1A1C01235340DBB26F
:10374000002BDBD1D9E07B681A688023DB05101CD5
:10375000191CFFF77DFD7B685B6828229B5C5BB2D0
:10376000181CFFF70DFDC0467B681B68181CFFF78F
:10377000A3FD031C1A1C01235340DBB2002BF3D121
:10378000BB6828229B5CDBB2002B00D1B5E07B68D4
:10379000181C00F0B5F8B0E0BB68DA68BB689B683D
:1037A0009A4210D2BB681A68BB68DB68D3181B78D2
:1037B0007A68101C191CFFF741FEBB68DB685A1CB5
:1037C000BB68DA6099E0BB6828229B5CDBB2002B07
:1037D00000D192E07B68181C00F092F88DE07B68C5
:1037E0005B6826229B5C002B5FD07B685B6827228E
:1037F0009B5C002B17D07B685B6826229B5C1A1CA5
:1038000001239340191C7B685B6827229B5C1A1C70
:1038100001239340081C191CFFF7A4FE021C0F2370
:10382000FB181A7003E00F23FB1802221A707B6842
:103830001A688023DB05101C191CFFF709FD27E01F
:10384000BB68DA68BB689B689A4220D2BB68DB68B9
:103850005A1CBB689B689A4208D1BB681B6A012B43
:1038600004D17B68181CFFF727FE03E07B68181C57
:10387000FFF716FEBB68DB685A1CBB68DA60BB68E2
:10388000DA680F23FB181B789A4201D30CE00BE097
:103890007B68181CFFF7A8FD031C1A1C012353406A
:1038A000DBB2002BCCD119E018E0BB68DB685A1CF6
:1038B000BB689B689A4208D1BB681B6A012B04D184
:1038C0007B68181CFFF7F8FD03E07B68181CFFF706
:1038D000E7FDBB68DB685A1CBB68DA607B689B68E5
:1038E000DA687B689B689B689A4206D17A68802375
:1038F000DB05101C191CFFF7C3FDBD4604B080BDDD
:1039000080B584B000AF78607B689B68FB607A68A4
:103910008023DB05101C191CFFF7B2FDFB68DB6977
:10392000012B07D1FB682822002199547B68181CC1
:10393000FFF7CEFDC0467B681B68181CFFF758FCDC
:10394000031E802BF7D0FB682622002199547B6848
:103950005B681B69002B03D07B685B681B69984719
:10396000BD4604B080BDC046B0B58AB004AFF860B3
:103970007A603B600B23FB180A1C1A701723FB1894
:1039800002221A70FB685B6825229B5C002B16D113
:103990001723FC18F8680B23FB1819787A683D6820
:1039A000BB6A00932C23FB181B7801933023FB1870
:1039B0001B7802932B1C00F0CBFA031C23701723F7
:1039C000FB181B78181CBD4606B0B0BD80B586B08C
:1039D00000AFF8607A603B600B23FB180A1C1A707A
:1039E000FB689B687B61FB681B68181CFFF79EFCEB
:1039F000FA683B68101C191C00F032FDFB681A685D
:103A0000C023DB05101C191CFFF768FC0B23FB18F7
:103A10001B78002B00D178E0FB685B6824229B5C5C
:103A2000012B15D0FB685B6824229B5C022B0FD016
:103A3000FA688023DB05101C191CFFF711FDFB68D9
:103A400019687B6924229B5C081C191CFFF78EFCFB
:103A5000FA687B68101C191C012200F079F9FB68D8
:103A60005B6824229B5C022B00D0B2E0FB685B68A1
:103A700026229B5C002B2ED021E07B69DA687B69D3
:103A80009B689A4219D27B69DB685A1C7B699B68E8
:103A90009A4208D17B691B6A012B04D1FB68181C70
:103AA000FFF70AFD03E0FB68181CFFF7F9FC7B69D0
:103AB000DB685A1C7B69DA6001E0C04689E0FB687C
:103AC000181CFFF791FC031C1A1C01235340DBB2A6
:103AD000002BD2D17DE07B69DB685A1C7B699B6837
:103AE0009A4208D17B691B6A012B04D1FB68181C20
:103AF000FFF7E2FC03E0FB68181CFFF7D1FC7B69D1
:103B0000DB685A1C7B69DA6063E0FB685B6826222D
:103B10009B5C002B36D0FB681A688023DB05101CE9
:103B2000191CFFF795FB21E07B69DA687B699B68CC
:103B30009A4219D27B69DB685A1C7B699B689A425E
:103B400008D17B691B6A012B04D1FB68181CFFF7A5
:103B5000B3FC03E0FB68181CFFF7A2FC7B69DB6881
:103B60005A1C7B69DA6001E0C04632E0FB68181C31
:103B7000FFF73AFC031C1A1C01235340DBB2002B55
:103B8000D2D126E07B69DA687B699B689A4220D2B1
:103B90007B69DB685A1C7B699B689A4208D17B6908
:103BA0001B6A012B04D1FB68181CFFF785FC0BE096
:103BB000FB681A68F2231B02101C191CFFF7F2FBAA
:103BC000FB68181CFFF76CFC7B69DB685A1C7B697F
:103BD000DA60BD4606B080BD80B586B000AFF86043
:103BE0007A600B23FB180A1C1A70FB689B687B61C8
:103BF000FB681A68C0231B02101C191CFFF7DAFAB5
:103C00000B23FB181B78002B49D0FB685B68242230
:103C10009B5C012B15D0FB685B6824229B5C022B0C
:103C20000FD0FA688023DB05101C191CFFF718FC65
:103C3000FB6819687B6924229B5C081C191CFFF730
:103C400095FBFA687B68101C191C012200F080F8B3
:103C5000FB685B6824229B5C012B06D0FB685B68D9
:103C600024229B5C022B00D06EE07B69DB685A1C2F
:103C70007B699B689A4208D17B691B6A012B04D13E
:103C8000FB68181CFFF718FC03E0FB68181CFFF723
:103C900007FC7B69DB685A1C7B69DA6054E0FB68CF
:103CA0005B6826229B5C002B19D17B69DB685A1C60
:103CB0007B699B689A4208D17B691B6A012B04D1FE
:103CC000FB68181CFFF7F8FB03E0FB68181CFFF704
:103CD000E7FB7B69DB685A1C7B69DA6034E0FB68D0
:103CE0001A688023DB05101C191CFFF7B1FA20E0CD
:103CF0007B69DA687B699B689A4219D27B69DB68C9
:103D00005A1C7B699B689A4208D17B691B6A012B0C
:103D100004D1FB68181CFFF7CFFB03E0FB68181CFD
:103D2000FFF7BEFB7B69DB685A1C7B69DA6000E049
:103D30000AE0FB68181CFFF757FB031C1A1C012341
:103D40005340DBB2002BD3D1BD4606B080BDC04688
:103D500080B584B000AFF860B960FB1D1A70FB68D5
:103D60001B68181C0C21FFF71DFBFB689B682822B1
:103D70009B5CDBB2002B0AD0BB689BB2191CFA68B3
:103D8000FB1D1B78101C1A1CFFF7D0FB0EE0FB6814
:103D90009B68282201219954BB689BB2191CFA68C0
:103DA000FB1D1B78101C1A1CFFF7A4FBBD4604B0BA
:103DB00080BDC04680B588B000AFF8607A603B60D7
:103DC0000B23FB180A1C1A701F23FB1802221A70FF
:103DD000FB689B687B610B23FB181B780122534017
:103DE000DBB2002B09D0FB689B6828229B5CDBB20E
:103DF00001225340DBB2002B05D13B68002B02D0DF
:103E0000BB6A002B04D11F23FB1801221A7065E046
:103E10007B6900229A617B6926229B5CDBB20122CE
:103E20005340DBB2002B59D07B693A681A607B693A
:103E3000BA6A9A607B690022DA607B6926220121D6
:103E400099542C23FB181A787B69DA61FA6880236D
:103E5000DB05101C191CFFF703FBFB6819687B6965
:103E600024229B5C081C191CFFF780FA0B23FB180B
:103E70001B78002B25D0FA687B68101C191C0022C7
:103E8000FFF766FF194BBB61C046FB681B68181C37
:103E9000FFF77EFA021C0C23134005D1BB69013BDE
:103EA000BB61BB69002BF0D1BB69002B04D11F2380
:103EB000FB1804221A7011E01F23FB1800221A704D
:103EC0000CE0FB6819687B6924229B5C081C191CA8
:103ED000FFF79CF91F23FB1800221A701F23FB1801
:103EE0001B78181CBD4608B080BDC046FF7F00008F
:103EF00080B582B000AF78607B689B682622002185
:103F000099547B689B6800221A607B689B68282212
:103F1000002199547B685B6826229B5C002B0CD0A7
:103F20007B681A688023DB05101C191CFFF790F9C9
:103F30007B681B68181CFFF79FF97A688023DB05F4
:103F4000101C191CFFF79CFABD4602B080BDC0468C
:103F500080B586B000AFF8607A603B600B23FB1839
:103F60000A1C1A701723FB1802221A70FB689B6840
:103F70003B61FB68002B17D00B23FB181B78012239
:103F80005340DBB2002B09D0FB689B6828229B5C66
:103F9000DBB201225340DBB2002B05D13B68002B82
:103FA00002D03B6A002B04D11723FB1801221A70A0
:103FB0004CE03B6927229B5CDBB201225340DBB221
:103FC000002B43D03B6901229A613B693A685A60F1
:103FD0003B693A6A1A613B693A681A603B693A6A16
:103FE0009A603B692622012199543B6927220121CD
:103FF00099542423FB181A783B69DA612823FB18AB
:104000001A783B691A623B6900225A613B690022B7
:10401000DA60FB685B6827229B5C002B08D0F8689D
:104020000B23FB1819787A683B6AFFF7CFFC09E08D
:10403000F9680B23FB181A787B68081C111C1A1CE2
:10404000FFF7CAFD1723FB1800221A701723FB186D
:104050001B78181CBD4606B080BDC04690B585B023
:1040600000AF78607B689B68BB600F23FB18002261
:104070001A70BB6827229B5CDBB2002B00D132E1B7
:104080007B685B6827229B5C002B00D1E3E022E089
:10409000BB685A68BB685B69D4187B68181CFFF75B
:1040A000BFF9031C2370BB685B695A1CBB685A616B
:1040B000BB685A69BB681B699A420CD1BB6827224E
:1040C000002199547B681A68C023DB05101C191C59
:1040D000FFF718F90AE07B68181CFFF793F9031C37
:1040E0001A1C01235340DBB2002BD1D1BB685A69A3
:1040F000BB681B699A4200D38CE0BB681A69BB6835
:104100005B69D31A7A68101C191C00F0A9F97B6846
:104110005B6826229B5C002B17D07B685B6826229D
:104120009B5C1A1C01239340191C7B685B68272247
:104130009B5C1A1C01239340081C191CFFF712FA00
:10414000021C0E23FB181A7003E00E23FB18022238
:104150001A707B685B6826229B5C002B41D033E0A1
:10416000BB68DA68BB689B689A422CD2BB68DB6884
:104170005A1CBB689B689A4208D1BB681B6A012B1A
:1041800004D17B68181CFFF797F903E07B68181CC3
:10419000FFF786F9BB68DB685A1CBB68DA600F233F
:1041A000FB180F22BA18127801321A700F23FA186E
:1041B0000E23FB1812781B789A4205D30F23FB18A5
:1041C00000221A700CE00BE07B68181CFFF70CF95A
:1041D000031C1A1C01235340DBB2002BC0D119E091
:1041E00018E0BB68DB685A1CBB689B689A4208D120
:1041F000BB681B6A012B04D17B68181CFFF75CF9B4
:1042000003E07B68181CFFF74BF9BB68DB685A1C9E
:10421000BB68DA60BB685A69BB681B699A4262D1A5
:104220007B681A68C023DB05101C191CFFF76AF8AD
:104230007B681A68C0231B02101C191CFEF7C8FFFC
:10424000BB6828229B5CDBB2002B4CD07B68181C1F
:1042500000F04CF847E0BB685A68BB685B69D4184B
:104260007B68181CFFF7DCF8031C2370BB685B69D4
:104270005A1CBB685A61BB685A69BB681B699A4281
:104280001FD2BB68DA68BB689B689A422BD2BB68B6
:10429000DA68BB689B68013B9A4208D1BB681B6A1D
:1042A000012B04D17B68181CFFF706F903E07B683B
:1042B000181CFFF7F5F8BB68DB685A1CBB68DA60AE
:1042C00011E07B681A68C0231B02101C191CFEF742
:1042D0007FFFBB6828229B5CDBB2002B03D07B688E
:1042E000181C00F003F8BD4605B090BD80B584B041
:1042F00000AF78607B689B68FB60FB68DB69012B23
:1043000010D1C0467B681B68181CFEF771FF031EA6
:10431000802BF7D0FB682822002199547B68181C59
:10432000FFF7D6F8C0467B681B68181CFEF760FFD5
:10433000031E802BF7D0FB68272200219954FB68CD
:104340002622002199547B685B685B69002B03D0AF
:104350007B685B685B699847BD4604B080BDC0461A
:1043600080B582B000AF78607B689B68272200210F
:1043700099547B689B682622002199547B689B682E
:1043800000225A607B689B682822002199547B6830
:104390005B6827229B5C002B08D07B681A68C023CF
:1043A000DB05101C191CFEF7ADFF07E07B681A68DF
:1043B000C0231B02101C191CFEF70AFF7A68802319
:1043C000DB05101C191CFFF75BF8BD4602B080BD71
:1043D00080B584B000AF78607B681B68181CFEF75E
:1043E000D7FF031CFB607B685B689B69002B0CD0CC
:1043F000FB682022134008D07B68181C2021FFF79F
:10440000F5F87B685B689B6998477B685B68DB694C
:10441000002B0CD0FB684022134008D07B68181C8E
:104420004021FFF7E3F87B685B68DB6998477B68AE
:104430005B681B6A002B0FD0FA6881235B00134076
:104440000AD07A6880235B00101C191CFFF7CEF895
:104450007B685B681B6A9847BD4604B080BDC04658
:1044600080B586B000AF786039607B685B682722D2
:104470009B5C1A1C012393401A1C1623FB181A700C
:104480007B685B6826229B5C002B0BD07B685B689B
:1044900026229B5C1A1C012393401A1C1723FB182D
:1044A0001A7003E01723FB1801221A701723FB1858
:1044B0001A781623FB181B78101C191CFFF752F8EA
:1044C000031C3B613A683B69101C191CFFF74AF852
:1044D000021C0F23FB181A707B685B6827229B5C09
:1044E000191C0F23FB181B78013B7A68101C1A1C3F
:1044F000FEF766FFBD4606B080BDC04680B584B0FD
:1045000000AF78600F23FB1800221A707B685B688D
:1045100024229B5C002B04D17B68181CFFF7E8FC6D
:1045200009E07B685B6824229B5C012B03D00F238E
:10453000FB1801221A707B681B687A681268D26CBB
:1045400002210A43DA647B681B6802229A660F2301
:10455000FB181B78181CBD4604B080BD80B584B024
:1045600000AF78600F23FB1800221A707B685B682D
:1045700025229B5C002B04D17B68181CFFF7F0FE02
:1045800009E07B685B6825229B5C012B03D00F232D
:10459000FB1801221A700F23FB181B78181CBD464C
:1045A00004B080BD80B582B000AF021CFB1D1A7044
:1045B000FB1D1B787F2B09D8064BFA1D1278111CA6
:1045C0001F220A40012191400A1C1A60BD4602B018
:1045D00080BDC04600E100E0B0B582B000AF021C73
:1045E0003960FB1D1A70FB1D1B787F2B27D82D4CC3
:1045F000FB1D1B785BB29B082A49FA1D127852B248
:104600009208C03292005258F91D0978081C032103
:104610000140C900081CFF218140C94311403A688C
:104620009201FF200240F81D0078051C032028405D
:10463000C00082400A43C0339B001A512EE01A4C3E
:10464000FB1D1B781A1C0F231340083B9908164AC0
:10465000FB1D1B78181C0F230340083B9B080633E7
:104660009B00D3185B68FA1D1278101C03220240CD
:10467000D200101CFF228240D2431A403B689B01AB
:10468000FF200340F81D0078051C03202840C000CF
:1046900083401A438B1D9B00E3185A60BD4602B04D
:1046A000B0BDC04600E100E000ED00E080B582B0A2
:1046B00000AF7860081C111CFB1C021C1A70BB1C8C
:1046C0000A1C1A70FB1C1878FB1C1B787A680633CE
:1046D0009B00D3185B68072293431A1CBB1C1B78F2
:1046E0001A437968831D9B00CB185A60BD4602B0FF
:1046F00080BDC04680B582B000AF78600A1CFB1C4C
:104700001A70FB1C1878FB1C1B787A6806339B0018
:10471000D3185B6820221A437968831D9B00CB184D
:104720005A60BD4602B080BD80B582B000AF7860EF
:104730000A1CFB1C1A70FB1C1878FB1C1B787A687F
:1047400006339B00D3185B6840221A437968831DA7
:104750009B00CB185A60BD4602B080BD80B582B0C8
:1047600000AF786039607A6884235B00D2583B6878
:104770001A43111C7A6884235B00D150BD4602B0F5
:1047800080BDC04680B582B000AF786039607A687D
:1047900086235B00D2583B681A43111C7A68862333
:1047A0005B00D150BD4602B080BDC04680B582B02E
:1047B00000AF78600A1CFB1C1A707B681B6C0F2210
:1047C00093431A1CFB1C1B781A437B681A64BD4672
:1047D00002B080BD80B582B000AF786039607A6881
:1047E0003B68101C191C0122FDF716F8BD4602B0EB
:1047F00080BDC04680B582B000AF78607B68181C71
:104800000421FFF7D3FFBD4602B080BD80B500AFE5
:10481000064B181C0A210022FCF774FF034B181CDE
:104820000B210022FCF76EFFBD4680BD0002044054
:1048300080B500AF9C23074A101C0A211A1CFCF704
:1048400061FF9823034A101C0B211A1CFCF75AFF26
:10485000BD4680BD0002044080B584B000AFB023E7
:104860005B04FB600023BB60C023DB057B604F4A19
:104870004F4B101C191CFFF7ADFF4C4B181C0021AF
:104880000522FFF713FF494B181C01210422FFF7F3
:104890000DFF464B181C03210022FFF707FF434B77
:1048A000181C04210022FFF701FF404B181C0521B2
:1048B0000022FFF7FBFE3D4B181C0021FFF71AFFFB
:1048C0003A4B181C0021FFF72FFF384B181C012111
:1048D000FFF710FF354B181C0121FFF725FF334B65
:1048E000181C082103220123FDF76CFC2F4B181C18
:1048F00010210522FDF702FD2C4ABB68101C191C73
:10490000FFF72CFF294B181C002103220723FDF77A
:1049100087FC264B181C10210322FDF713FD234BA7
:10492000181C13210322FDF70DFD204A7B68101C83
:10493000191CFFF727FF1D4B181C10210022FDF743
:10494000BDFC1A4AFB68101C191CFDF77DF9174BBA
:10495000181CFFF74FFF174A174B101C0A211A1C8F
:10496000FCF712FC134A154B101C0B211A1CFCF708
:104970000BFC0E200321FFF72FFEE0231B010E206E
:10498000191CFCF779FE0E20FFF70CFE0C2003210A
:10499000FFF722FEC0231B010C20191CFCF76CFE44
:1049A0000C20FFF7FFFDBD4604B080BD00020048AB
:1049B000E862001000020440D8620010E0620010BB
:1049C00080B500AF024B181CFEF74EFEBD4680BD01
:1049D0001406002080B500AF024B181CFFF73EFB09
:1049E000BD4680BD1406002080B582B000AF78605F
:1049F0007B6819687B681A7B7B680433081C111C70
:104A00001A1CFCF7C1FB7B6819687B681A7B7B6802
:104A10005B7B081C111C1A1CFCF7BCFE0023181C35
:104A2000BD4602B080BDC04680B500AF034B034A0F
:104A3000926E01218A439A66BD4680BD0000014006
:104A400080B584B000AF78600F23FB1800221A7085
:104A50000E23FB1800221A700D23FB1800221A7077
:104A60000C23FB1800221A700B23FB1800221A706B
:104A70007B681B7801225340DBB2002B1BD00E2336
:104A8000FA180D23FB1812781B781343DAB20C23A3
:104A9000FB181B781343D9B20F23FB180B22BA184B
:104AA00012780A431A700F23FB181B78002B02D1CF
:104AB0007B6801221A700F23FB181B78181CBD4657
:104AC00004B080BD90B585B000AF3B1C054A13CA49
:104AD00013C312681A603B1C181CFCF72DFCBD4662
:104AE00005B090BD2C63001090B583B000AFFB1DE6
:104AF00000221A70FC1D1C4B181CFFF7A1FF031CA1
:104B00002370FB1D1B78002B06D1FC1D174B181CB6
:104B1000FDF750FD031C2370FB1D1B78002B06D1F5
:104B2000FC1D134B181CFFF75FFF031C2370FB1DBC
:104B30001B78002B06D1FC1D0E4B181CFDF73AFD0F
:104B4000031C2370FB1D1B78002B06D1FC1D0A4B98
:104B5000181CFEF71BFD031C2370FB1D1B78181C83
:104B6000BD4603B090BDC046B006002090050020B1
:104B70001C630010DC0500201406002080B582B004
:104B800000AF78607A688C235B0080210902D150E5
:104B9000BD4602B080BDC04680B582B000AF78602F
:104BA0007A688C235B008021C901D150BD4602B0D8
:104BB00080BDC04680B582B000AF78607B689B68DE
:104BC00026229B5CDBB2181CBD4602B080BDC046ED
:104BD00080B582B000AF78607B681B68181CFFF757
:104BE000CDFFBD4602B080BD80B582B000AF786019
:104BF0007B681B68181CFFF7CFFFBD4602B080BD65
:104C000090B583B002AF1C4BE0221A701A4BB6224B
:104C10005A70194BF2229A70174B0122DA70164B18
:104C2000F4221A71144B25225A71134BF5229A71F2
:104C3000114B0022DA71114B00221A70104A0E4CEF
:104C40000823009301230193101C0121EC22231C53
:104C5000FEF7DCFCC0460A4B181CFFF7ABFF031E37
:104C6000F9D1064B1B78022B01D1002300E0012370
:104C7000181CBD4601B090BD68070020A8070020A1
:104C80001406002090B587B004AF021CFB1D1A70FB
:104C9000294B181C00F0C8F9284B181CFFF7A4FF7B
:104CA000264B181CFFF794FFFA1DFB1D1B78DB1821
:104CB0001370234BD0221A70FB1D1A781F49204C09
:104CC0000123009300230193081C0121231CFEF7FC
:104CD0009DFCC046194B181CFFF76CFF031EF9D151
:104CE000184B1B78022B01D1002320E0FB1D1A7802
:104CF0001249134C012300930123019301230293D2
:104D0000081C0121231CFEF72FFEC0460B4B181C6C
:104D1000FFF750FF031EF9D1094B1B78602B05D11B
:104D2000094B181C00F080F9012300E00023181C37
:104D3000BD4603B090BDC04660630010140600205D
:104D400068070020A80700207C63001080B582B0AF
:104D500000AF78600A1CFB1C1A70FB1C1B788022B9
:104D600052029A407B685A60BD4602B080BDC04680
:104D700080B582B000AF78607B681B68181CFDF7B7
:104D800095F8BD4602B080BD80B582B000AF7860B6
:104D90007B681A687B681B7B101C191CFFF7D6FF09
:104DA000BD4602B080BDC04690B583B000AFFC1DCB
:104DB000FFF79AFE031C237001F05CF8FB1D1B78C3
:104DC000002B04D0144B181C00F02EF9FEE7134BF7
:104DD000181C00F029F9124B181CFFF7D5FF114BD6
:104DE000181CFFF7C5FF104B181CFFF7C1FF7620FA
:104DF000FFF748FF031C1A1C0C4B181C111C00F079
:104E000097F8FFF7FDFE031C1A1C094B181C111C18
:104E100000F08EF8FEE7C04690630010B06300100B
:104E20001C63001090050020DC050020D0630010FA
:104E3000F463001080B500AF084B181C00F0F4F8C4
:104E4000074B02221A70074B181C2021FEF7CEFBDD
:104E5000044B181CFFF752FBBD4680BD08640010D0
:104E6000A80700201406002080B500AF024B181CD4
:104E700000F0DAF8BD4680BD4464001080B500AF94
:104E80000A4B181C00F0D0F8094A80235B00101C64
:104E9000191CFEF7ABFB064B181CFFF72FFB044B4E
:104EA000181CFFF75BFBBD4680BDC0465064001078
:104EB0001406002080B500AFBD4680BD80B500AFB0
:104EC000BD4680BD80B500AF024B181C00F0ACF8A9
:104ED000BD4680BD64640010014B18687047C04631
:104EE000800600200E4B70B500251E1C0D4CE41AE8
:104EF000A410A54204D0AB00F35898470135F8E759
:104F0000FDF7A2FA084B00251E1C084CE41AA41059
:104F1000A54204D0AB00F35898470135F8E770BDBF
:104F200084060020840600208406002084060020D9
:104F30000FB40B4B13B51C68002C05D0A369002BD4
:104F400002D1201C00F03EFA05AB201CA168049A97
:104F5000019300F0EFFB16BC08BC04B01847C04634
:104F60008006002070B5051C0E1C002804D0836943
:104F7000002B01D100F026FAAC68A3891B0702D5EB
:104F80002369002B19D1281C211C00F0AFF8002840
:104F900013D00120404245E03178002B1BDAA26992
:104FA000934211DA221C281C00F048F801304242DA
:104FB0004241D0B20028ECD10136A3683278013BDF
:104FC000A360002AE8D10CE02368197023681978DF
:104FD0000A2903D1E6E723681970236801332360A7
:104FE000EAE7002B17DAA269934208DB0A2322685A
:104FF0001370236819780A2911D1281C01E0281C94
:105000000A21221C00F01AF8013042424241D0B27B
:10501000002806D0BDE70A232268137023680133F5
:1050200023600A2070BD000008B5034B011C1868FE
:10503000FFF798FF08BDC0468006002070B5051C2C
:105040000E1C141C002804D08369002B01D100F031
:10505000B9F9234B9C4201D16C6808E0214B9C427A
:1050600001D1AC6803E0204B9C4200D1EC68A369FD
:10507000A360A3891B070AD52369002B07D02368E7
:105080002269F6B2981A636998420FDB08E0281C7F
:10509000211C00F02BF80028F1D0012040421DE037
:1050A000281C211C00F020F90028F6D1A36801304B
:1050B000013BA36023685A1C22601E7063699842FA
:1050C00005D0A389301CDB0708D50A2E06D1281C81
:1050D000211C00F009F90028DFD1301C70BDC0464A
:1050E0007C6400109C640010BC640010354B70B5EB
:1050F0001D68061C0C1C002D05D0AB69002B02D1CD
:10510000281C00F05FF9304B9C4201D16C6808E02C
:105110002E4B9C4201D1AC6803E02D4B9C4200D148
:10512000EC68A3899AB2110723D4D10607D40922C7
:105130000120326037321343A381404240E05307DD
:1051400013D5616B002908D0231C4433994202D047
:10515000301C00F029FA002363632422A3899343BF
:10516000A38100236360236923600822A38913437A
:10517000A3812369002B0BD1A023A2899B0013409C
:1051800080229200934203D0301C211C00F0ACF925
:105190000123A289134005D00023A36063695B4209
:1051A000A36103E0910700D46369A3600020236931
:1051B000834205D1130603D540231A43A281013847
:1051C00070BDC046800600207C6400109C64001006
:1051D000BC640010F7B58A89051C0C1C13075ED44B
:1051E0004B68002B02DC0B6C002B1ADDE76A002FEA
:1051F00017D000232E682B6080235B011A4001D05A
:10520000626D15E0281C216A0123B847021C431C6B
:105210000ED12B68002B0BD01D2B01D0162B02D1E9
:105220002E6000205EE04021A3890B43A38159E05A
:10523000A3895B0706D56368D21A636B002B01D084
:10524000236CD21A0023281C216AE76AB847A38975
:10525000421C06D12A68002A03D01D2A01D0162A32
:1052600019D10022626022692260DB0405D5431C4B
:1052700002D12B68002B00D16065616B2E60002984
:10528000CFD0231C4433994202D0281C00F08CF963
:105290000020606326E040221343A38122E00F69CF
:1052A000002FBED00B680F60DB1B01930023920719
:1052B00000D14B69A360019B002BB2DD281C216A41
:1052C0003A1C019BA66AB047002806DC4022012058
:1052D000A38940421343A38104E0019B3F181B1A9A
:1052E0000193E8E7FEBD000038B50B69051C0C1CF6
:1052F000002B01D100201CE0002804D08369002B82
:1053000001D100F05FF80B4B9C4201D16C6808E0C2
:10531000094B9C4201D1AC6803E0084B9C4200D190
:10532000EC680C22A35E002BE4D0281C211CFFF7A4
:1053300051FF38BD7C6400109C640010BC640010F8
:1053400008B5024900F0AEF808BDC046E9520010A9
:10535000002310B5041C03604360836081814366B1
:10536000C281036143618361191C08225C3000F033
:1053700013F9054B24626362044BA362044BE3629E
:10538000044B236310BDC046855C0010AD5C00106B
:10539000E55C0010115D001070B568254B1E5D4383
:1053A0000E1C291C743100F045F9041E08D00021A0
:1053B0002A1C016046600C30A060683200F0ECF8F6
:1053C000201C70BD836913B5002B28D18364C3648E
:1053D0000365134B134A1B6882620193984201D103
:1053E00001238361041C00F01FF86060201C00F0A2
:1053F0001BF8A060201C00F017F80421E0600022D8
:105400006068FFF7A5FFA06809210122FFF7A0FF50
:10541000E06812210222FFF79BFF0123A36113BD65
:105420007864001041530010F8B51D4B061C1D6830
:10543000AB69002B02D1281CFFF7C4FF4835AC68CC
:105440006B68013B05D40C22A75E002F10D0683496
:10545000F7E72B68002B06D1301C0421FFF79CFFD7
:105460002860002801D02D68E9E70C23336016E09E
:105470000123201C5B42E3810233A381676627601E
:10548000A760676027616761A7615C30391C0822EB
:1054900000F082F8201C6763A763A764E764F8BD87
:1054A00078640010F7B5041C071C002601914834ED
:1054B000002C16D06368A5680093009B013B009305
:1054C0000DD4AB89012B08D90E22AB5E013304D079
:1054D000381C291C019B984706436835EDE7246872
:1054E000E6E7301CFEBD0000F0B58B8991B09B074C
:1054F00006D50B1C47330B600B6101234B6145E064
:105500000C1C0E23C95E061C002904DA8023A58921
:105510001D4010D10CE001AA00F026FC0028F5DBAC
:10552000F023029D1B021D40194BED186B425D419B
:105530008027FF0001E000254027301C391C00F0C7
:1055400079F800280CD1A3899A051FD402221343AD
:10555000A381231C4733236023610123636115E08A
:1055600080220C4BB362A38920601343A381206186
:105570006761002D0AD00E23E15E301C00F006FCAE
:10558000002803D00122A3891343A38111B0F0BDE9
:1055900000E0FFFF41530010031C8218934202D029
:1055A00019700133FAE7704730B500293ED004394D
:1055B0000B68002B00DAC9181D4A1368141C002B55
:1055C00002D14B60116031E099420DD208680A188F
:1055D0009A4203D11368C3180B6053684B60216073
:1055E00024E08A4203D8131C5A68002AF9D11D68A6
:1055F0005C198C420BD109686918581819609042DF
:1056000014D110685268091819605A600EE08C4273
:1056100002D90C23036009E008680C18944203D1F6
:1056200014685268001908604A60596030BDC0466D
:10563000B8060020032370B5CC1C9C430834051C1D
:105640000C2C01D20C2405E0002C03DA0C230020E2
:105650002B6042E08C42F9D3204A1368101C191CBD
:10566000002913D00A68121B0DD40B2A02D90A6034
:105670008B181FE08B4202D15A6802601BE04A6817
:105680005A600B1C17E00B1C4968E9E7144E33689D
:10569000002B03D1281C00F0E3FA3060281C211CE9
:1056A00000F0DEFA031C421CD0D00322C61C964335
:1056B00086420AD11C60181C07210B301A1D884332
:1056C000821A0AD05142995007E0311A281C00F082
:1056D000C7FA431CBAD0331CECE770BDB8060020F3
:1056E000B4060020936810B5013B9360002B05DAE7
:1056F0009469A34208DBCBB20A2B05D01368581C6F
:1057000010601970C8B201E0FFF798FC10BDF8B541
:10571000061C0F1C141CD518AC4208D02178301C74
:105720003A1CFFF7DFFF0134431CF5D100E00020F5
:10573000F8BD0000F0B59FB0061C0F1C0292059347
:10574000002804D08369002B01D1FFF73BFE794B81
:105750009F4201D1776808E0774B9F4201D1B7683B
:1057600003E0764B9F4200D1F768BB891B070AD53F
:105770003B69002B07D0002306AD6B6120336B76AD
:105780001033AB763DE0301C391CFFF7AFFC00282E
:10579000F1D001204042CAE0059A111D126805911E
:1057A000002A7EDB0992013423782E2B00D189E078
:1057B00021786348032200F00FFB002808D0604BDB
:1057C0000134C01A40238340181C2B6818432860FA
:1057D0002178631C5B4806220293297600F0FCFACC
:1057E000002800D191E0584B002B00D084E0072224
:1057F000059B07339343083305936B69039A9B1802
:105800006B61029C2378002B04D1029BE31A049362
:1058100011D003E0252BF8D00134F3E7049B301CB2
:10582000391C029AFFF773FF431C7BD06A69049B03
:10583000944663446B612378002B73D001220023CC
:1058400052426A6002A95432521801342B60EB6054
:10585000AB601370AB6521783C48052200F0BCFAC0
:10586000002809D0394B0134C01A01238340181C89
:105870002B6818432860EEE72B68DA0604D553221C
:10588000202102A8121811701A0704D553222B21C7
:1058900002A81218117022782A2A00D17CE7099BED
:1058A00005E05242EA60022213432B607BE7227834
:1058B000303A092A04D80A214B4301349B18F6E7F1
:1058C000099371E763782A2B09D1059B02341A1DCD
:1058D0001B680592002B0DDA01235B420AE00023CE
:1058E00001342278303A092A04D80A214B43013482
:1058F0009B18F6E707935BE705AB0093301C291C68
:105900003A1C134B00E000BF07E005AB0093301CCE
:10591000291C3A1C0E4B00F08BF80390039B0133BB
:1059200000D06AE7BB895B0600D532E70B981FB051
:10593000F0BDC0467C6400109C640010BC64001084
:10594000E2640010E664001000000000DC64001057
:105950000F570010F7B5171C01930A698B68009068
:105960000C1C934200DA131C221C3B604332127859
:10597000002A01D001333B6023689B0602D53B68B7
:1059800002333B60062523681D401ED0231C433391
:105990001B785A1E9341226892061CD53020E118CC
:1059A0004031C870211C5A1C45310978A218403278
:1059B0000233D1700FE0221C0123009801991932A3
:1059C000089EB047431C0ED00135E3683A689B1A25
:1059D0009D42F0DBDAE7221C009801994332089DD2
:1059E000A847431C02D10120404220E00623206842
:1059F000E1683A6803400025042B03D18D1AEB437C
:105A0000DB171D40A3682269934201DD9B1AED1844
:105A10000027AF420ADA221C0123009801991A32AA
:105A2000089EB047431CDED00137F2E70020FEBDE0
:105A3000F0B58BB006920A1C43320793059004928E
:105A40000A7E0C1C109B6E2A00D1A8E011D8632A94
:105A500022D009D8002A00D1B2E0582A00D0C2E0F2
:105A600045310A707C4A4FE0642A1DD0692A1BD058
:105A7000B9E0732A00D1A7E009D86F2A29D0702A8B
:105A800000D0B0E0202209680A43226037E0752A7E
:105A90001FD0782A33D0A6E00D1C1A684235111D9C
:105AA000196013682B70A1E021681A68080603D5F5
:105AB000111D1960166805E04906F9D5111D196018
:105AC0000023D65E002E3BDA2D23049A7642137013
:105AD00036E021681A68080603D5111D196016689A
:105AE00005E04906F9D5111D19601668B6B25A4B82
:105AF000227E03930A276F2A1DD108271BE0221C50
:105B0000782145321170554A19680392081D2268A0
:105B100018600E68100602D4500600D5B6B2D3073E
:105B200002D520231A4322601027002E03D1202300
:105B300022689A432260231C002243331A7002E039
:105B40000A27454B03936368A360002B03DB042201
:105B5000216891432160002E02D1049D002B0ED0BC
:105B6000049D301C391CFCF7F9F8039B013D5B5C7C
:105B7000301C2B70391CFCF7A1F8061EF1D1082F40
:105B800009D12368DB0706D563682269934202DCEA
:105B90003023013D2B70049B5B1B23612BE00968C4
:105BA0001A68080607D4490605D5111D196013683F
:105BB000A28A1A8004E0111D1960136862691A60D4
:105BC0000023049D236116E01A68111D19601568F1
:105BD0000021281C626800F0FFF8002801D0401B5B
:105BE0006060636803E0251C42352A70012323614D
:105BF0000023049A1370079B05980093211C069BB1
:105C000009AAFFF7A7FE431C02D10120404221E070
:105C10002A1C236905980699079DA847431CF4D0C0
:105C200023689B0705D4099BE068984212DA181C88
:105C300010E00025E368099A9B1A9D42F3DA221CC2
:105C40000123059806991932079EB047431CDCD002
:105C50000135EFE70BB0F0BDED640010FE640010FD
:105C600038B50023064C051C081C2360FCF7B8FB64
:105C7000431C03D12368002B00D02B6038BDC046E5
:105C8000AC07002038B50C1C0E25495F00F0B0F8B9
:105C9000002803DB636D1B18636503E0A289024BD8
:105CA0001340A38138BDC046FFEFFFFFF8B51E1CAF
:105CB0008B89051C0C1C171CDB0505D50E23C95E42
:105CC0000022022300F074F8A289054B281C13401F
:105CD000A3813A1C0E23E15E331C00F01FF8F8BDCF
:105CE000FFEFFFFF38B50C1C0E25495F00F060F890
:105CF000A389421C03D1054A1340A38104E08022FA
:105D000052011343A381606538BDC046FFEFFFFF1A
:105D100008B50E23C95E00F015F808BD38B5051C9E
:105D20000020074C2060081C111C1A1C00F068F9A8
:105D3000431C03D12368002B00D02B6038BDC04624
:105D4000AC07002038B50023064C051C081C236056
:105D500000F082F9431C03D12368002B00D02B6094
:105D600038BDC046AC07002038B50023064C051CE2
:105D7000081C111C236000F0B8F9431C03D12368F0
:105D8000002B00D02B6038BDAC07002038B50023B5
:105D9000064C051C081C236000F0B4F9431C03D119
:105DA0002368002B00D02B6038BDC046AC07002014
:105DB00038B5051C0020074C2060081C111C1A1C5B
:105DC00000F00AF9431C03D12368002B00D02B609C
:105DD00038BDC046AC070020C9B28218904204D03A
:105DE00003788B4202D00130F8E7002070470000B2
:105DF00038B5051C0020074C2060081C111C1A1C1B
:105E000000F094F8431C03D12368002B00D02B60D2
:105E100038BDC046AC0700200A4B10B5041C1868FA
:105E2000002804D08369002B01D1FFF7CBFA0020B2
:105E3000132C05D8044BE400E258013200D01819A5
:105E400010BDC04680060020C8060020F8B5051C1D
:105E5000FFF742F80027061C1324201C391CABBE98
:105E6000041C281C3460F8BD08B5431C01D1FFF7A1
:105E7000EDFF08BDF0B5204B85B00193032301ACC5
:105E8000A360002301256360281C211CABBE061CF7
:105E9000194B1A4F01930323A3605B193E606360A3
:105EA000281C211CABBE061C331C154E3360124B44
:105EB00001930323A36005336360281C211CABBE40
:105EC000041C104A391C1460631C01D13368136030
:105ED000002001240C4B6442C4500830A028F8D1A3
:105EE0000968306819600021126859609860D960AB
:105EF0001A61596105B0F0BD0F650010C0060020A1
:105F0000BC060020C4060020C806002030B585B0BD
:105F100001AD0190029103920624201C291CABBE06
:105F2000041C201CFFF7A0FF05B030BD70B50E1C8F
:105F3000151CFFF771FF041E05D1FEF7CDFF0923E5
:105F400003600A3B0BE00068311C2A1CFFF7DEFFF0
:105F5000031C421C03D062682B1AD2186260181C02
:105F600070BDF7B50C1C161CFFF756FF051E03D1BC
:105F7000FEF7B2FF092304E0022E06D9FEF7ACFFBC
:105F8000162303600120404225E0012E03D143681F
:105F9000E41810D5F2E7022E0DD103680A360093FB
:105FA0006F46301C391CABBE061C301CFFF75CFF73
:105FB0002418431CE6D02B686F46009301940A26F0
:105FC000301C391CABBE061C301CFFF74DFF0028EF
:105FD000D8DB201C6C60FEBD08B5FFF7C2FF08BD12
:105FE00030B585B001AD0190029103920524201CCB
:105FF000291CABBE041C201CFFF736FF05B030BDCA
:1060000070B50E1C151CFFF707FF041E04D1FEF728
:1060100063FF0923036010E00068311C2A1CFFF7AE
:10602000DFFF031E09DB6268281A121862609D42B6
:1060300005D10020FFF70AFF01E00120404270BDBA
:1060400037B50224019001AD201C291CABBE041CF5
:10605000201CFFF709FF3EBD38B5051CFFF7DCFE2D
:10606000041E06D1FEF738FF0923036001204042D9
:1060700014E0013D012D09D8094B9A681B699A4229
:1060800004D101235B420360002007E02068FFF792
:10609000D7FF002802D101235B42236038BDC046F0
:1060A000C806002070B50C1CFFF7B6FE061E05D111
:1060B000FEF712FF092303600A3B14E080236268A5
:1060C0009B01134363608023DB00E3620C25281CE3
:1060D000311CABBE051C281CFFF7C6FE031C421C6E
:1060E00001D000232061181C70BD38B5051C0C1CA4
:1060F0003C22081C0021FFF74FFA281C211CFFF747
:10610000D1FF38BD70B5FFF787FE0925041E03D106
:10611000FEF7E2FE056010E0281C211CABBE041C4B
:10612000012084420AD0FEF7D7FE0024061C132566
:10613000281C211CABBE051C3560201C70BD000056
:1061400000030440000000000000044000000000C4
:106150000000044001000000A00000000100000059
:1061600000000000000000000004044001000000E6
:106170009C0000000100000000000000000004007E
:1061800060050020292E00104061001050050020FD
:106190004861001090060020000000000000000090
:1061A0000000000000000000506100105861001065
:1061B0006861001000000000000000000000000006
:1061C00000000000000000000000000000000000CF
:1061D00070610010000000000000000000000000DE
:1061E00000000000000000000000000000000000AF
:1061F00000000000C54E0010000000000006000076
:106200000000000000000001010100000001044046
:1062100005000000000104400400000000000440EC
:1062200007000000980000000100000000000000CE
:10623000000000000001044006000000980000007B
:10624000010000000000000000000400AC05002078
:10625000C12F00100C6200109C0500201462001079
:10626000A006002000000000000000000000000068
:10627000000000001C620010246200103462001054
:10628000000000000000000000000000000000000E
:106290000000000000000000000000003C62001050
:1062A00000000000000000000000000000000000EE
:1062B00000000000000000000000000000000000DE
:1062C0000000000000000000040400000000004086
:1062D00000000001010402009C0000000100000019
:1062E0009800000001000000A086010000000000EE
:1062F000E862001059480010314800100D480010A5
:10630000B54E0010BD4E0010354E0010694E001005
:106310007D4E0010000003030E0C0000000004403E
:1063200080000000000001000200000000000100E9
:106330000000300300000100000000000A0A53744E
:10634000617274696E6720493243205363616E6ED7
:1063500065722E2E2E2E2000446F6E6520000000E8
:106360000A0A436F6D6D756E69636174696F6E20A3
:1063700054657374202E2E2E2E200000424D45327F
:10638000383020636F6E6E656374656400000000D2
:1063900044415645204150507320696E69746961CB
:1063A0006C697A6174696F6E206661696C656400FE
:1063B00044415645204150507320696E69746961AB
:1063C0006C697A6174696F6E2070617373656400C3
:1063D0005465737420436F6D6D756E696361746984
:1063E0006F6E2072657475726E6564202564200A74
:1063F00000000000496E69742072657475726E65E4
:1064000064202564200A00004E4F2041434B2C207D
:10641000436865636B20436F6D6D756E696361746E
:10642000696F6E206F7220736C61766520616464A1
:10643000726573732E202841626F7274696E6729CA
:106440000000000008415242206C6F73740000008D
:10645000493243206572726F72206465746563749B
:1064600000000000535049207465737420657272F7
:106470006F720000430000002006002000000000B2
:10648000000000000000000000000000000000000C
:1064900000000000000000000000000000000000FC
:1064A00000000000000000000000000000000000EC
:1064B00000000000000000000000000000000000DC
:1064C00000000000000000000000000000000000CC
:1064D000000000000000000000000000232D302B11
:1064E0002000686C4C0065666745464700303132D5
:1064F000333435363738394142434445460030312C
:106500003233343536373839616263646566003A50
:04651000747400009F
:106514002C480047000000000000000000000000BC
:106524000000000000000000000000000000000067
:1065340025480047000000000000000023480047F1
:10654400234800472348004723480047234800477F
:10655400234800472348004723480047234800476F
:10656400234800472348004723480047234800475F
:10657400234800472348004723480047234800474F
:10658400234800472348004723480047234800473F
:10659400234800472348004723480047234800472F
:1065A400234800472348004723480047234800471F
:1065B400234800472348004723480047234800470F
:1065C400234800479D1000109D1000109D100010DE
:1065D4009D1000109D1000109D1000109D100010C3
:1065E4009D1000109D1000109D1000109D100010B3
:1065F4009D1000109D100010AD2F0010992F001059
:106604006D310010D549001059310010C1490010F6
:106614009D1000109D1000109D1000109D10001082
:106624009D1000109D1000109D1000109D10001072
:106634009D1000109D1000109D1000109D10001062
:106644009D1000109D1000109D1000109D10001052
:046654009D10001085
:1066580088000000010000000000000000000000A9
:1066680000093D00000004000000000008000000D0
:106678000000000000000000000000000000000012
:106688000000000000000000000000000000010001
:1066980000420048806100106C050020880000005E
:1066A800010000000000000000000000C0C62D002E
:1066B80000000400000000000800000000000000C6
:1066C80000000000000000000000000000000000C2
:1066D800000000000007070000000100000000485B
:1066E8004C620010B8050020000000000000000007
:1066F8000000000000000000000000000000000092
:106708000000000000000000000000000503000079
:106718000000000000020048F0620010E8050020B8
:10672800000000007C6400109C640010BC64001031
:106738000000000000000000000000000000000051
:106748007464001000000000000000000000000059
:106758000000000000000000000000000000000031
:106768000000000000000000000000000000000021
:106778000000000000000000000000000000000011
:0467880020060020C7
:040000051000101DBA
:00000001FF
